:020000040800F2
:1000000000000520154F0008514100085341000829
:100010005541000857410008594100080000000000
:10002000000000000000000000000000D1210008D6
:100030005B4100080000000071220008D522000882
:10004000654F0008654F0008654F0008654F0008C0
:10005000654F0008654F0008654F0008654F0008B0
:10006000654F0008654F0008654F0008654F0008A0
:10007000654F0008654F0008654F0008654F000890
:10008000654F0008654F0008654F0008654F000880
:10009000654F0008654F0008654F0008654F000870
:1000A000654F00085D410008654F0008654F000876
:1000B000654F0008654F0008654F0008654F000850
:1000C000654F0008654F0008654F0008654F000840
:1000D000654F0008654F0008654F0008654F000830
:1000E000654F0008654F0008654F0008654F000820
:1000F000654F0008654F0008654F0008654F000810
:10010000654F0008654F0008654F0008654F0008FF
:10011000654F0008654F0008654F0008654F0008EF
:10012000654F0008654F0008654F0008654F0008DF
:10013000654F0008654F0008654F0008654F0008CF
:10014000654F0008654F0008654F0008654F0008BF
:10015000654F0008654F0008654F0008654F0008AF
:10016000654F0008654F0008654F0008654F00089F
:10017000654F0008654F0008654F0008000000004B
:10018000654F0008654F0008654F0008654F00087F
:10019000654F0008654F0008654F0008654F00086F
:1001A000654F0008654F0008654F0008654F00085F
:1001B000654F0008654F0008654F0008654F00084F
:0801C000654F0008654F0008BF
:1001D00010B5054C237833B9044B13B10448AFF381
:1001E00000800123237010BD1000002000000000DB
:1001F000FC4F000808B5034B1BB103490348AFF39C
:10020000008008BD0000000014000020FC4F000822
:1002100053B94AB9002908BF00281CBF4FF0FF316D
:100220004FF0FF3000F074B9ADF1080C6DE904CE69
:1002300000F006F8DDF804E0DDE9022304B07047C1
:100240002DE9F047089D04468E46002B4DD18A4289
:10025000944669D9B2FA82F252B101FA02F3C2F1BC
:10026000200120FA01F10CFA02FC41EA030E94404D
:100270004FEA1C48210CBEFBF8F61FFA8CF708FB6E
:1002800016E341EA034306FB07F199420AD91CEB46
:10029000030306F1FF3080F01F81994240F21C8178
:1002A000023E63445B1AA4B2B3FBF8F008FB1033C0
:1002B00044EA034400FB07F7A7420AD91CEB0404F5
:1002C00000F1FF3380F00A81A74240F207816444C5
:1002D000023840EA0640E41B00261DB1D44000234A
:1002E000C5E900433146BDE8F0878B4209D9002DAE
:1002F00000F0EF800026C5E9000130463146BDE838
:10030000F087B3FA83F6002E4AD18B4202D38242A1
:1003100000F2F980841A61EB030301209E46002D50
:10032000E0D0C5E9004EDDE702B9FFDEB2FA82F2A5
:10033000002A40F09280A1EB0C014FEA1C471FFA03
:100340008CFE0126200CB1FBF7F307FB131140EAEA
:1003500001410EFB03F0884208D91CEB010103F1B7
:10036000FF3802D2884200F2CB804346091AA4B279
:10037000B1FBF7F007FB101144EA01440EFB00FE4D
:10038000A64508D91CEB040400F1FF3102D2A645B2
:1003900000F2BB800846A4EB0E0440EA03409CE751
:1003A000C6F12007B34022FA07FC4CEA030C20FAFE
:1003B00007F401FA06F31C43F9404FEA1C4900FA1E
:1003C00006F3B1FBF9F8200C1FFA8CFE09FB18119B
:1003D00040EA014108FB0EF0884202FA06F20BD90E
:1003E0001CEB010108F1FF3A80F08880884240F25E
:1003F0008580A8F102086144091AA4B2B1FBF9F0A2
:1004000009FB101144EA014100FB0EFE8E4508D99C
:100410001CEB010100F1FF346CD28E456AD9023821
:10042000614440EA0840A0FB0294A1EB0E01A14206
:10043000C846A64656D353D05DB1B3EB080261EB74
:100440000E0101FA07F722FA06F3F1401F43C5E94E
:10045000007100263146BDE8F087C2F12003D84084
:100460000CFA02FC21FA03F3914001434FEA1C47C6
:100470001FFA8CFEB3FBF7F007FB10360B0C43EAB8
:10048000064300FB0EF69E4204FA02F408D91CEB68
:10049000030300F1FF382FD29E422DD90238634466
:1004A0009B1B89B2B3FBF7F607FB163341EA034106
:1004B00006FB0EF38B4208D91CEB010106F1FF3855
:1004C00016D28B4214D9023E6144C91A46EA00464C
:1004D00038E72E46284605E70646E3E61846F8E6DE
:1004E0004B45A9D2B9EB020864EB0C0E0138A3E727
:1004F0004646EAE7204694E74046D1E7D0467BE708
:10050000023B614432E7304609E76444023842E77F
:10051000704700BF08B5032000F01AF8002003F070
:10052000D9FD03F06BFD002008BD0000034A1168EF
:10053000034B1B780B441360704700BF2C00002056
:1005400000000020014B1868704700BF2C000020FD
:100550000649CB6823F4E0631B041B0C000200F483
:10056000E0600343024A1A43CA60704700ED00E0AE
:100570000000FA0500B5174BDB68C3F30223C3F193
:10058000070CBCF1040F28BF4FF0040C03F1040E5C
:10059000BEF1060F14D9033B4FF0FF3E0EFA0CFCE0
:1005A00021EA0C0199400EFA03F322EA03031943EE
:1005B000002807DB0901C9B2074B19545DF804FB99
:1005C0000023E9E700F00F000901C9B2034B1954F9
:1005D000F4E700BF00ED00E000E400E014ED00E00F
:1005E000002807DB00F01F02400901239340024A64
:1005F00042F82030704700BF00E100E000230F2BDD
:1006000000F2E480F0B583B03AE0092200E0002275
:10061000AA40324302346E4D45F824206D4A1468D6
:100620006FEA0C0224EA0C054E6816F4803F01D0F4
:100630004CEA0405674C2560646802EA04054E68CC
:1006400016F4003F01D04CEA0405624C6560A468D2
:1006500002EA04054E6816F4801F01D04CEA040536
:100660005C4CA560E46822404D6815F4001F01D081
:100670004CEA0402574CE26001330F2B00F2A480D5
:1006800001229A400C6804EA020C32EA0404F3D115
:100690004C68651E112C18BF012D01D9122C12D1E6
:1006A00085685E000324B44025EA0405CC68B440A4
:1006B0002C438460456825EA02054C68C4F30012A7
:1006C0009A402A434260C5684FEA430E032404FA65
:1006D0000EF4E24325EA04058C6804FA0EF42C4378
:1006E000C4604C68122C18BF022C0FD1DD080835ED
:1006F00050F8257003F00704A6000F24B44027EA41
:1007000004070C69B4403C4340F825400468144099
:100710004A6802F0030202FA0EF2224302604A68BB
:1007200012F0805FA8D02C4A546C44F48044546486
:10073000526C02F480420192019A9C08A51C244A42
:1007400052F8256003F0030295000F22AA4026EA22
:100750000206224A90423FF45AAF02F5806290426C
:1007600022D002F58062904220D002F58062904251
:100770001ED002F5806290421CD002F58062904249
:100780001AD002F58062904218D002F58062904241
:1007900016D002F58062904214D002F58062904239
:1007A0003FF433AF0A2233E7012231E702222FE779
:1007B00003222DE704222BE7052229E7062227E75B
:1007C000072225E7082223E703B0F0BD704700BFEA
:1007D00000380140003C0140003802400000024067
:1007E0000AB181617047090481617047436901EA78
:1007F000030221EA030141EA0241816170470000DE
:1008000010B582B01B4B1A6C42F080521A641B6CFC
:1008100003F080530193019B174A136843F480331C
:100820001360FFF78FFE0446134B5B6813F4803FA1
:1008300008D1FFF787FE001BB0F57A7FF4D90320BB
:1008400002B010BD0C4A136843F400331360FFF785
:1008500079FE0446084B5B6813F4003F07D1FFF7AD
:1008600071FE001BB0F57A7FF4D90320E8E7002081
:10087000E6E700BF0038024000700040002800F0AA
:10088000FF8170B582B00446036813F0010F29D0D0
:10089000954B9B6803F00C03042B1AD0924B9B687A
:1008A00003F00C03082B0FD06368B3F5803F40D0F2
:1008B000002B54D18C4B1A6822F480321A601A68CB
:1008C00022F480221A6039E0874B5B6813F4800FB2
:1008D000EAD0854B1B6813F4003F03D06368002BFC
:1008E00000F0D081236813F0020F74D07E4B9B6818
:1008F00013F00C0F5ED07C4B9B6803F00C03082BAD
:1009000053D0E368002B00F08980774A136843F0E6
:1009100001031360FFF716FE0546734B1B6813F0C7
:10092000020F72D1FFF70EFE401B0228F5D90320FB
:10093000ADE16D4A136843F48033136063682BB3F1
:10094000FFF700FE0546684B1B6813F4003FC9D152
:10095000FFF7F8FD401B6428F5D9032097E1B3F5B4
:10096000A02F09D0604B1A6822F480321A601A68EE
:1009700022F480221A60E1E75B4B1A6842F480227D
:100980001A601A6842F480321A60D7E7FFF7DAFD7E
:100990000546554B1B6813F4003FA3D0FFF7D2FD6B
:1009A000401B6428F5D9032071E14F4B5B6813F4B9
:1009B000800FA6D14C4B1B6813F0020F03D0E368E5
:1009C000012B40F06181484A136823F0F803216944
:1009D00043EAC1031360236813F0080F46D063692C
:1009E00083B3414A536F43F001035367FFF7AAFDF6
:1009F00005463D4B5B6F13F0020F37D1FFF7A2FDA9
:100A0000401B0228F5D9032041E1374A136823F03F
:100A1000F803216943EAC1031360DCE7324A136833
:100A200023F001031360FFF78DFD05462E4B1B6875
:100A300013F0020FCFD0FFF785FD401B0228F5D938
:100A4000032024E1284A536F23F001035367FFF783
:100A500079FD0546244B5B6F13F0020F06D0FFF7BC
:100A600071FD401B0228F5D9032010E1236813F023
:100A7000040F7DD01C4B1B6C13F0805F1ED11A4BF2
:100A80001A6C42F080521A641B6C03F0805301937D
:100A9000019B0125154B1B6813F4807F10D0A368C0
:100AA000012B25D0002B3BD10F4B1A6F22F00102F6
:100AB0001A671A6F22F004021A671EE00025E9E7A0
:100AC0000A4A136843F480731360FFF73BFD064640
:100AD000064B1B6813F4807FE1D1FFF733FD801BC9
:100AE0006428F5D90320D2E00038024000700040AD
:100AF0006E4A136F43F001031367A36833B3FFF724
:100B000021FD0646694B1B6F13F0020F2FD1FFF733
:100B100019FD801B41F288339842F3D90320B6E0D7
:100B2000052B09D0614B1A6F22F001021A671A6F68
:100B300022F004021A67E0E75C4B1A6F42F00402ED
:100B40001A671A6F42F001021A67D6E7FFF7FAFC3C
:100B50000646564B1B6F13F0020F08D0FFF7F2FC4E
:100B6000801B41F288339842F3D903208FE0FDB90E
:100B7000A369002B00F08A804C4A926802F00C02B4
:100B8000082A58D0022B19D0484A136823F08073E2
:100B90001360FFF7D7FC0446444B1B6813F0007F3B
:100BA00047D0FFF7CFFC001B0228F5D903206EE0E9
:100BB0003E4A136C23F080531364D9E73B4A136811
:100BC00023F080731360FFF7BDFC0546374B1B68AD
:100BD00013F0007F06D0FFF7B5FC401B0228F5D9C3
:100BE000032054E0E369226A1343626A43EA8213F2
:100BF000A26A5208013A43EA0243E26A43EA026304
:100C000043F00053294A5360136843F08073136024
:100C1000FFF798FC0446254B1B6813F0007F06D1B4
:100C2000FFF790FC001B0228F5D903202FE00020DD
:100C30002DE000202BE01D4A5268012B29D002F440
:100C40008003E1698B4226D102F03F03216A8B4287
:100C500023D1616A47F6C0731340B3EB811F1ED1E5
:100C600002F44031A36A5B08013BB1EB034F18D19A
:100C700002F07062E36AB2EB036F14D1002006E069
:100C800001207047012002E0012000E0002002B0B6
:100C900070BD0120FBE70120F9E70120F7E7012003
:100CA000F5E70120F3E70120F1E700BF003802403B
:100CB00008B5254B9B6803F00C03042B3FD0082B91
:100CC0003FD1214B5A6802F03F025B6813F4800F5A
:100CD00012D01D4B5968C1F388111C480023A1FB99
:100CE0000001FFF795FA184B5B68C3F3014301332A
:100CF0005B00B0FBF3F025E0134B5968C1F3881C8F
:100D00004FEA4C11B1EB0C006EEB0E0E4FEA8E1356
:100D100043EA90638101091A63EB0E03DB0043EAA7
:100D20005173C90011EB0C0C43F10003990200232D
:100D30004FEA8C2041EA9C51FFF76AFAD3E7034857
:100D400000E0034808BD00BF0038024040787D0144
:100D50000024F400002800F0A08070B50D46044681
:100D6000524B1B6803F00F038B420BD24F4A1368A0
:100D700023F00F030B431360136803F00F038B4240
:100D800040F08D80236813F0020F17D013F0040F8A
:100D900004D0474A936843F4E0539360236813F008
:100DA000080F04D0424A936843F460439360404A7A
:100DB000936823F0F003A1680B439360236813F05A
:100DC000010F31D06368012B20D0022B25D0384A87
:100DD000126812F0020F64D035498A6822F00302CB
:100DE00013438B60FFF7AEFB0646314B9B6803F065
:100DF0000C036268B3EB820F16D0FFF7A3FB801BD6
:100E000041F288339842F0D9032045E0284A12681D
:100E100012F4003FE0D101203EE0254A126812F0B2
:100E2000007FD9D1012037E0204B1B6803F00F036E
:100E3000AB420AD91D4A136823F00F032B431360FA
:100E4000136803F00F03AB422DD1236813F0040F96
:100E500006D0174A936823F4E053E1680B4393608C
:100E6000236813F0080F07D0114A936823F46043F6
:100E7000216943EAC1039360FFF71AFF0C4B9B689B
:100E8000C3F303130B4AD35CD8400B4B18600B4BD6
:100E9000186803F01FF9002070BD01207047012081
:100EA000FAE70120F8E70120F6E700BF003C024026
:100EB00000380240685000080C00002004000020A8
:100EC000014B1868704700BF0C00002008B5FFF701
:100ED000F7FF044B9B68C3F38223034AD35CD840DB
:100EE00008BD00BF003802407850000808B5FFF781
:100EF000E7FF044B9B68C3F34233034AD35CD840FB
:100F000008BD00BF00380240785000080F2303607E
:100F10000B4B9A6802F0030242609A6802F0F002FA
:100F200082609A6802F4E052C2609B68DB0803F4B6
:100F3000E0530361034B1B6803F00F030B60704722
:100F400000380240003C0240F0B583B00446066819
:100F500016F001060DD0A74B9A6822F400029A60A1
:100F60009A68416B0A439A60436B002B00F0398109
:100F70000026256815F4002511D09E4AD2F88C3041
:100F800023F44013E16B0B43C2F88C30E36BB3F5F1
:100F9000801F00F02881002B00F0278100252368A6
:100FA00013F4801F0FD0934AD2F88C3023F44003FF
:100FB000216C0B43C2F88C30236CB3F5800F00F02A
:100FC000168103B90125236813F0807F00D0012624
:100FD00013F0200F40F01081236813F0100F0CD095
:100FE000844BD3F88C2022F08072C3F88C20D3F885
:100FF0008C20A16B0A43C3F88C20236813F4804F24
:1010000008D07C4AD2F8903023F44033616E0B4311
:10101000C2F89030236813F4004F08D0754AD2F814
:10102000903023F44023A16E0B43C2F89030236824
:1010300013F4803F08D06F4AD2F8903023F4401365
:10104000E16E0B43C2F89030236813F4003F08D0E0
:10105000684AD2F8903023F44003216F0B43C2F862
:101060009030236813F0400F08D0624AD2F89030D5
:1010700023F00303616C0B43C2F89030236813F034
:10108000800F08D05B4AD2F8903023F00C03A16C9B
:101090000B43C2F89030236813F4807F08D0554A80
:1010A000D2F8903023F03003E16C0B43C2F890305B
:1010B000236813F4007F08D04E4AD2F8903023F012
:1010C000C003216D0B43C2F89030236813F4806F86
:1010D00008D0484AD2F8903023F44073616D0B4336
:1010E000C2F89030236813F4006F08D0414AD2F858
:1010F000903023F44063A16D0B43C2F89030236815
:1011000013F4805F08D03B4AD2F8903023F4405368
:10111000E16D0B43C2F89030236813F4005F08D0F0
:10112000344AD2F8903023F44043216E0B43C2F886
:101130009030236813F4800F08D02E4AD2F89030F4
:1011400023F08063A16F0B43C2F89030236813F43F
:10115000001F0DD0274AD2F8903023F00063E16FD2
:101160000B43C2F89030E36FB3F1006F00F0AA8038
:10117000236813F0080F00D0012513F4802F08D046
:101180001C4AD2F8903023F04073616F0B43C2F8D1
:101190009030236813F4000F09D0164AD2F890302B
:1011A00023F08053D4F880100B43C2F8903026B956
:1011B000236813F0007F00F005810E4A136823F0C6
:1011C00080631360FFF7BEF906460A4B1B6813F0F5
:1011D000006F79D0FFF7B6F9801B6428F5D903209A
:1011E000F3E00126C5E60126D5E60125D7E601266E
:1011F000E7E600BF003802407F4B1A6C42F0805295
:101200001A641B6C03F080530193019B7B4A1368A3
:1012100043F480731360FFF795F90746774B1B681B
:1012200013F4807F06D1FFF78DF9C01B6428F5D930
:101230000320CAE0704B1B6F13F4407315D0226B70
:1012400002F440729A4210D06B4B1A6F22F4407233
:10125000196F41F480311967196F21F480311967D2
:101260001A671B6F13F0010F12D1236B03F4407246
:10127000B2F5407F1DD0604A936823F4F813936061
:101280005D490B6F226BC2F30B0213430B67A3E69E
:10129000FFF758F90746584B1B6F13F0020FE4D1C4
:1012A000FFF750F9C01B41F288339842F3D903206D
:1012B0008BE05148826822F4F812514919400A43E0
:1012C0008260DDE7012553E7236813F0010F13D097
:1012D000636B8BB9484AD2F88430D2F884106068C6
:1012E00003F4403343EA801301F070610B43A168BB
:1012F00043EA0173C2F88430236813F4002F03D04B
:10130000E26BB2F5801F06D013F4801F1ED0236C51
:10131000B3F5800F1AD1384AD2F88430D2F884104D
:10132000606803F4403343EA8013E06843EA0063F3
:1013300001F0E0410B43C2F88430D2F88C3023F046
:101340001F03616A01390B43C2F88C30236813F024
:10135000807F11D0284AD2F88400D2F884106668C1
:1013600023691B0443EA861300F07060034301F015
:10137000E0410B43C2F88430236813F0007F0DD0A6
:10138000626823691B0443EA8213E26843EA02634A
:10139000A26843EA0273184AC2F88430164A1368F6
:1013A00043F080631360FFF7CDF80646124B1B68CD
:1013B00013F0006F06D1FFF7C5F8801B6428F5D93C
:1013C000032002E0012D02D0002003B0F0BD0A4A44
:1013D000136823F080531360FFF7B4F80546064BFB
:1013E0001B6813F0005F0DD0FFF7ACF8401B6428BA
:1013F000F5D90320E9E700BF003802400070004043
:10140000FFFCFF0F236813F4002F01D0E26B22B121
:1014100013F4801F1DD0236CDBB9354AD2F8883015
:10142000D2F88810606903F4403343EA8013A0695E
:1014300043EA006301F0E0410B43C2F88830D2F880
:101440008C3023F4F853A16A013943EA0123C2F82E
:101450008C30236813F4001F03D0E36FB3F1006FE7
:1014600031D0236813F0080F19D0214AD2F8881020
:10147000D2F88830606903F4403343EA801301F006
:1014800070610B43E16943EA0173C2F88830D2F816
:101490008C3023F44033E16A0B43C2F88C30144A99
:1014A000136843F080531360FFF74CF80446104B69
:1014B0001B6813F0005F19D1FFF744F8001B642884
:1014C000F5D9032081E70A4AD2F88800D2F88810BB
:1014D0006569236A1B0443EA851300F070600343C7
:1014E00001F0E0410B43C2F88830BAE700206CE716
:1014F000003802407047000090F83D30DBB2012B0D
:101500003AD1022380F83D300268D36843F00103EA
:10151000D36003681A4AB3F1804F18BF93421DD0BD
:10152000A2F57C42934219D002F58062934215D015
:1015300002F58062934211D002F5784293420DD0B9
:1015400002F57052934209D0A2F59432934205D02D
:101550001A6842F001021A60002070479968094A2F
:101560000A40062A18BFB2F5803F07D01A6842F039
:1015700001021A6000207047012070470020704768
:101580000000014007000100704770477047704736
:1015900010B5044603681A6912F0020F11D0DA6818
:1015A00012F0020F0DD06FF002021A6101230377CF
:1015B00003689B6913F0030F79D0FFF7E6FF002360
:1015C000237723681A6912F0040F12D0DA6812F038
:1015D000040F0ED06FF004021A61022323772368F0
:1015E0009B6913F4407F68D02046FFF7CEFF0023AD
:1015F000237723681A6912F0080F12D0DA6812F004
:10160000080F0ED06FF008021A61042323772368B5
:10161000DB6913F0030F57D02046FFF7B6FF002316
:10162000237723681A6912F0100F12D0DA6812F0CB
:10163000100F0ED06FF010021A6108232377236871
:10164000DB6913F4407F46D02046FFF79EFF00235E
:10165000237723681A6912F0010F03D0DA6812F0B9
:10166000010F3FD123681A6912F0800F03D0DA68A6
:1016700012F0800F3DD123681A6912F4807F03D0E5
:10168000DA6812F0800F3BD123681A6912F0400F1C
:1016900003D0DA6812F0400F39D123681A6912F0CA
:1016A000200F03D0DA6812F0200F37D110BDFFF7FA
:1016B0006BFF2046FFF76AFF81E72046FFF764FFD4
:1016C0002046FFF763FF92E72046FFF75DFF2046C5
:1016D000FFF75CFFA3E72046FFF756FF2046FFF722
:1016E00055FFB4E76FF001021A61204602F0D8FB03
:1016F000B8E76FF080021A61204600F0D0F8BAE730
:101700006FF480721A61204600F0CAF8BCE76FF0EF
:1017100040021A612046FFF73AFFBEE76FF0200251
:101720001A61204600F0BAF8C0E7000030B503683F
:101730003B4A904214BF4FF0000E4FF0010EB0F143
:10174000804F14BF72464EF00102AAB9354CA04238
:1017500014BF00240124344DA8420DD064B904F113
:10176000804404F58234A04214BF0024012405F50E
:101770000065A84200D01CB123F070034C682343DD
:10178000002A33D1274A904214BF00220122264C5E
:10179000A0422BD052BB02F1804202F5823290422D
:1017A00014BF0022012204F50064A0421ED0EAB951
:1017B0001E4A904214BF0022012204F59A34A0422E
:1017C00014D09AB91A4A904214BF0022012204F59B
:1017D0000064A0420AD04AB9164A904214BF0022BF
:1017E0000122A4F59634A04200D022B123F4407C1B
:1017F000CB6843EA0C0323F080034A691343036078
:101800008A68C2620A6882620B4A904214BF7346B9
:101810004EF001030BB10B6903630123436130BD3B
:101820000000014000080040000400400044014066
:1018300000180040002000400004014060B310B5D3
:10184000044690F83D3013B3022384F83D3021461E
:1018500051F8040BFFF76AFF012384F8483084F83D
:101860003E3084F83F3084F8403084F8413084F8CA
:10187000423084F8433084F8443084F8453084F8AA
:10188000463084F8473084F83D30002010BD80F8A1
:101890003C30FFF72FFED7E70120704770477047B5
:1018A0007047000010B5044683680269134342691B
:1018B0001343C269134301680868934A0240134303
:1018C0000B602268536823F44053E1680B43536074
:1018D000A269236A1A4321688B6823F43063134397
:1018E0008B602368894A934219D0894A934229D050
:1018F000884A93423ED0884A934262D0874A9342B4
:1019000071D0874A934200F08380864A934200F068
:101910009480854A934200F0A58010233AE0834BDF
:10192000D3F8903003F00303032B09D8DFE803F06A
:101930000204AE0601232DE004232BE0082329E056
:10194000102327E0794BD3F8903003F00C030C2BD5
:101950000ED8DFE803F0070D0D0D090D0D0D9D0DDF
:101960000D0D0B00002315E0042313E0082311E004
:1019700010230FE06D4BD3F8903003F03003202B91
:1019800000F0888019D8002B00F08680102B40F0E2
:1019900085800423E069B0F5004F00F0AB80082B90
:1019A00000F20C81DFE813F0E800FB00E6000A011A
:1019B000FE000A010A010A010101302B70D108233F
:1019C000E8E75A4BD3F8903003F0C003802B69D07E
:1019D00005D8002B68D0402B68D10423DAE7C02B50
:1019E00066D10823D6E7514BD3F8903003F4407307
:1019F000B3F5007F5ED006D8002B5DD0B3F5807FB5
:101A00005CD10423C6E7B3F5407F59D10823C1E771
:101A1000464BD3F8903003F44063B3F5006F51D0D8
:101A200006D8002B50D0B3F5806F4FD10423B1E717
:101A3000B3F5406F4CD10823ACE73C4BD3F8903062
:101A400003F44053B3F5005F44D006D8002B43D0D5
:101A5000B3F5805F42D104239CE7B3F5405F3FD1EB
:101A6000082397E7314BD3F8903003F44043B3F5A4
:101A7000004F37D005D8BBB3B3F5804F36D1042320
:101A800088E7B3F5404F33D1082383E7022381E78A
:101A900002237FE702237DE700237BE7102379E71A
:101AA000102377E7022375E7002373E7102371E71C
:101AB00010236FE702236DE700236BE7102369E72C
:101AC000102367E7022365E7012363E7102361E73B
:101AD00010235FE702235DE700235BE7102359E74C
:101AE000102357E7022355E7002353E7102351E75C
:101AF00010234FE7082B5BD8DFE803F01A343A5A7B
:101B0000375A5A5A1E0000BFF369FFEF0010014018
:101B10000044004000480040004C0040005000409D
:101B20000014014000780040007C00400038024072
:101B3000FFF7CCF900283DD06268530803EB400062
:101B4000B0FBF2F080B2A0F110024FF6EF739A42B0
:101B500032D820F00F03C0F3420018432368D86046
:101B6000002030E0FFF7C2F9E4E7FFF7A1F8E1E772
:101B70001748E1E7164802E0FFF7A8F900B36368E9
:101B800000EB5300B0FBF3F080B2A0F110024FF66F
:101B9000EF739A4216D82368D860002013E0FFF74D
:101BA000A5F9EBE7FFF784F8E8E74FF40040E6E734
:101BB000012008E0002006E0012004E0012002E00E
:101BC000002000E0012000236366A36610BD00BF73
:101BD0000024F400436A13F0010F06D00268536832
:101BE00023F40033816A0B435360436A13F0020FFE
:101BF00006D00268536823F48033C16A0B435360F4
:101C0000436A13F0040F06D00268536823F480235C
:101C1000016B0B435360436A13F0080F06D0026850
:101C2000536823F40043416B0B435360436A13F042
:101C3000100F06D00268936823F48053816B0B4326
:101C40009360436A13F0200F06D00268936823F470
:101C50000053C16B0B439360436A13F0400F0AD0EB
:101C60000268536823F48013016C0B435360036CC8
:101C7000B3F5801F0BD0436A13F0800F06D00268C3
:101C8000536823F40023816C0B4353607047026850
:101C9000536823F4C003416C0B435360EBE72DE919
:101CA000F84305460F4616469946DDF820802C6815
:101CB000E46937EA04030CBF4FF0010C4FF0000C4D
:101CC000B4453DD1B8F1FF3FF1D0FEF73BFCA0EBAE
:101CD0000900404522D8B8F1000F1FD02B681A68C0
:101CE00012F0040FE3D0DA6912F4006FDFD04FF482
:101CF00000621A622A68136823F4D07313602A689A
:101D0000936823F0010393602023AB67EB67C5F86A
:101D10008030002385F87430032012E02A681368AD
:101D200023F4D07313602A68936823F0010393604F
:101D30002023AB67EB67002385F87430032000E0B5
:101D40000020BDE8F8832DE9F04182B01E46836F84
:101D5000202B56D104460D469046002A18BF002974
:101D600053D090F87430012B51D0012380F8743097
:101D70000023C0F8803021238367FEF7E3FB07468A
:101D8000A4F85080A4F85280A368B3F5805F05D012
:101D90004FF00008002384F8743012E0236913B177
:101DA0004FF00008F6E7A8460025F3E715F8012BE9
:101DB00023689A62B4F8522092B2013A92B2A4F81F
:101DC0005220B4F852309BB283B100963B460022B9
:101DD00080212046FFF763FFD8B9002DE6D138F8FF
:101DE000023B2268C3F308039362E3E700963B4695
:101DF000002240212046FFF752FF60B92023A3674D
:101E000000E0022002B0BDE8F0810120FAE70220E4
:101E1000F8E70320F6E70320F4E710B582B00446A4
:101E20000023C0F88030FEF78DFB23681B6813F099
:101E3000080F08D12023A367E3670020206684F8F9
:101E4000740002B010BD6FF07E4300930346002281
:101E50004FF400112046FFF722FF0028EAD00320AC
:101E6000EFE768B310B50446836F03B32423A36779
:101E70002268136823F0010313602046FFF712FD68
:101E8000012813D0636ABBB92268536823F49043D6
:101E900053602268936823F02A03936022681368D2
:101EA00043F0010313602046FFF7B7FF10BD80F831
:101EB000743002F0C3F8D9E72046FFF78BFEE3E762
:101EC00001207047EFF305837BB9EFF3108313B95B
:101ED000EFF311831BB1094B1B68022B08D0074B92
:101EE000186840B901221A6070476FF0050070470A
:101EF0006FF0050070474FF0FF3070478C020020F4
:101F000008B5EFF30583A3B9EFF3108313B9EFF32B
:101F100011831BB10B4B1B68022B0DD0094B1B68A7
:101F2000012B0CD1074B02221A6001F0C1F90020ED
:101F300008BD6FF00500FBE76FF00500F8E74FF014
:101F4000FF30F5E78C020020F0B587B0002405943F
:101F5000EFF30584002C38D1EFF3108313B9EFF3BE
:101F600011831BB12D4B1B68022B2ED068B322B3FB
:101F70001568936903B918235C1E372C49D8546837
:101F800014F0010F47D156696EB14FEA960C946870
:101F90002CB1D7685B2F02D9176907B1C6B92CB12C
:101FA0004FF0FF340EE04FF0800CF0E7D4688CB9AE
:101FB000146994B14FF0FF3404E01546002418234F
:101FC0004FF0800C012C0AD0ACB1059807B0F0BDE1
:101FD0000124F7E74FF0FF34F4E70024F2E7146937
:101FE00092680292019400930B466246294601F0E2
:101FF000E9F80590E9E705AA019200930B461FFA5C
:102000008CF2294601F01FF90128DED00023059348
:10201000DBE70020DAE70020D8E700BF8C020020D1
:1020200008B5EFF3058383B9EFF3108313B9EFF32A
:1020300011831BB1084B1B68022B09D008B9002083
:1020400008BD01F0BDFA0020FAE76FF00500F7E7E0
:102050006FF00500F4E700BF8C020020034B036023
:10206000034B0B6080231360704700BF30020020D9
:1020700030000020034B0360034B0B604FF4807370
:1020800013607047900600209002002000F10803C2
:1020900043604FF0FF328260C3600361002303603E
:1020A000704700230361704743684B609A688A60F9
:1020B000516099600861036801330360704730B470
:1020C0000D68B5F1FF3F11D000F108031C465B68B5
:1020D0001A68AA42FAD963684B6099608C606160A3
:1020E000086103680133036030BC70470469F2E79C
:1020F0000369416882688A60416851605A68824217
:1021000006D0002202611A68013A1A601868704706
:1021100082685A60F5E7000082B0002301930F4BFC
:102120001B68B3F1FF3F0AD04FF0500372B683F340
:102130001188BFF36F8FBFF34F8F62B6FEE74FF08A
:10214000500372B683F31188BFF36F8FBFF34F8FC5
:1021500062B6019B002BFCD002B070470800002043
:1021600008480068006880F308884FF0000080F39A
:10217000148862B661B6BFF34F8FBFF36F8F00DF75
:1021800000BF000008ED00E0DFF80C00016841F43A
:10219000700101607047000088ED00E04FF080732F
:1021A00040F8043C21F0010140F8081C054B40F8C0
:1021B0000C3C40F8202C6FF0020340F8243C4438DB
:1021C000704700BF19210008000000000000000057
:1021D000074B19680868B0E8F04F80F30988BFF32F
:1021E0006F8F4FF0000080F311887047AFF30080CD
:1021F0004C4300204FF0500372B683F31188BFF3B5
:102200006F8FBFF34F8F62B60C4A136801331360B0
:10221000012B00D070474FF0E023D3F8043D13F0BA
:10222000FF0FF7D04FF0500372B683F31188BFF35E
:102230006F8FBFF34F8F62B6FEE700BF080000202C
:102240000A4B1B6853B94FF0500372B683F31188E1
:10225000BFF36F8FBFF34F8F62B6FEE7013B034AB8
:1022600013600BB983F31188704700BF080000208A
:10227000EFF30980BFF36F8F154B1A681EF0100F34
:1022800008BF20ED108A20E9F04F10602DE9090009
:102290004FF0500072B680F31188BFF34F8FBFF339
:1022A0006F8F62B601F0B8F94FF0000080F311882B
:1022B00009BC19680868B0E8F04F1EF0100F08BF9D
:1022C000B0EC108A80F30988BFF36F8F704700BFAE
:1022D0004C43002008B54FF0500372B683F31188C9
:1022E000BFF36F8FBFF34F8F62B601F059F828B17B
:1022F0004FF0E0234FF08052C3F8042D002383F306
:10230000118808BD4FF0E022002313619361054B53
:102310001B680549A1FB03139B09013B536107237C
:10232000136170470C000020D34D621030B583B0AC
:102330002F4B1A78D2B20192FF221A701B78DBB2AF
:102340008DF803309DF8033003F05003294A1370D1
:10235000294B07221A6009E0274A1368013B1360E2
:102360009DF803305B00DBB28DF803309DF803303D
:1023700013F0800FF0D1204B1B68032B0AD04FF0D5
:10238000500372B683F31188BFF36F8FBFF34F8F83
:1023900062B6FEE71B02184A136003F4E0631360A1
:1023A000019BDBB2124A13704FF0E024D4F8203DB9
:1023B00043F47003C4F8203DD4F8203D43F070434B
:1023C000C4F8203DFFF79EFF00250C4B1D60FFF772
:1023D000DBFED4F8343F43F04043C4F8343FFFF70A
:1023E000BFFE01F019F9FFF797FE284603B030BD94
:1023F00000E400E0EC060020F006002008000020C9
:10240000EFF305830F2B11D9134A9B5CDBB2134A00
:1024100012789A420AD94FF0500372B683F31188AA
:10242000BFF36F8FBFF34F8F62B6FEE74FF0E0232D
:10243000D3F80C3D03F4E063094A126893420AD9C9
:102440004FF0500372B683F31188BFF36F8FBFF361
:102450004F8F62B6FEE77047F0E300E0EC06002025
:10246000F0060020124A12F0070F1ED0D11D21F0F5
:102470000701C1F5705313440A460E48026000215B
:1024800041601344083B23F007030B480360596085
:102490001960991A51601360084B1960084B196054
:1024A000084B4FF000421A6070474FF47053E4E756
:1024B000F806002004430020F4060020004300201A
:1024C000FC420020F8420020164B1A461B6883424B
:1024D000FBD3516802EB010C844509D0416800EB45
:1024E000010C634509D00360904219D01060704719
:1024F0004068014451601046F0E710B40A4C24686B
:10250000A3420BD05B681944416013681B680360E9
:10251000904200D010605DF8044B70470460F7E70C
:10252000704700BF04430020F406002070B5054644
:1025300000F020FF364B1B68A3B1364B1B681D42D1
:102540004CD135B1083515F0070F02D025F007053D
:102550000835002D44D0304B1B68AB4251D32F4A75
:10256000146804E0FFF77EFFE7E722461C46636835
:10257000AB4202D22368002BF7D1254B1B68A34244
:1025800041D0166808362368136063685B1B102B04
:1025900012D9601910F0070F0AD04FF0500372B62D
:1025A00083F31188BFF36F8FBFF34F8F62B6FEE7DF
:1025B00043606560FFF788FF626817490B689B1AE4
:1025C0000B60174909688B4201D215490B60114B0A
:1025D0001B68134363600023236002E0002600E0D1
:1025E000002600F06DFF16F0070F0ED04FF05003DD
:1025F00072B683F31188BFF36F8FBFF34F8F62B64C
:10260000FEE70026EDE70026EBE7304670BD00BF91
:10261000F4060020F8420020FC4200200443002081
:1026200000430020002834D038B50446A0F1080546
:1026300050F8043C174A126813420AD14FF0500375
:1026400072B683F31188BFF36F8FBFF34F8F62B6FB
:10265000FEE750F8081C51B14FF0500372B683F3F7
:102660001188BFF36F8FBFF34F8F62B6FEE723EA87
:10267000020340F8043C00F07DFE54F8041C064AB6
:1026800013680B4413602846FFF71EFF00F018FF85
:1026900038BD7047F8420020FC42002010B50446C7
:1026A000FFF7A8FDA26BE36B9A4204D00024FFF76A
:1026B000C7FD204610BD0124F9E710B50446FFF719
:1026C00099FDA36B23B90124FFF7BAFD204610BD85
:1026D0000024F9E770B504461546866B026C5AB9BA
:1026E00003681BB100200136A66370BD806801F04D
:1026F000EBF80023A360F6E76DB9406802F068FCD0
:10270000226C636813446360A268934219D3236800
:1027100063602846E7E7C06802F05AFC226C514229
:10272000E3689B1AE3602268934202D2A3680B44D9
:10273000E360022D01D00020D5E726B1013E002044
:10274000D1E72846CFE70020CDE70346026C6AB107
:1027500010B50846D9681144D9609C68A14201D3DC
:102760001968D960D96802F033FC10BD704738B5DC
:102770000546FFF73FFD95F8454064B201E0013C96
:1027800064B2002C0ADD6B6A43B105F1240000F04D
:10279000DDFF0028F3D001F075F8F0E7FF2385F89E
:1027A0004530FFF74DFDFFF725FD95F8444064B235
:1027B00001E0013C64B2002C0ADD2B6943B105F154
:1027C000100000F0C3FF0028F3D001F05BF8F0E741
:1027D000FF2385F84430FFF733FD38BD38B5E0B14D
:1027E0000D460446FFF706FD2368E26B216C01FBF2
:1027F0000230A0600020A0636360013A02FB013355
:10280000E360FF2384F8443084F845300DBB23692E
:1028100073B9FFF715FD012038BD4FF0500372B6B4
:1028200083F31188BFF36F8FBFF34F8F62B6FEE75C
:1028300004F1100000F08AFF0028EAD04FF0E023F6
:102840004FF08052C3F8042DBFF34F8FBFF36F8F4B
:10285000DFE704F11000FFF719FC04F12400FFF793
:1028600015FCD6E7F8B505461E46069C0F4679B915
:102870002460E563276401212046FFF7AFFF84F859
:102880004C6033463A462946732002F091F8F8BD71
:102890002260EEE750B94FF0500372B683F311880F
:1028A000BFF36F8FBFF34F8F62B6FEE710B584B0F2
:1028B0001C4693B10B1E18BF0123002A08BF43F02A
:1028C0000103ABB94FF0500372B683F31188BFF325
:1028D0006F8FBFF34F8F62B6FEE74FF0500372B6B3
:1028E00083F31188BFF36F8FBFF34F8F62B6FEE79C
:1028F000B1FA81F35B09002A18BF43F0010353B911
:102900004FF0500372B683F31188BFF36F8FBFF39C
:102910004F8F62B6FEE750230393039B502B0AD0E0
:102920004FF0500372B683F31188BFF36F8FBFF37C
:102930004F8F62B6FEE7039B012384F84630009474
:102940009DF81830FFF78EFF204604B010BDF0B59B
:1029500087B0039298B10E461D460446D1B1022DB0
:1029600026D1E36B012B23D04FF0500372B683F3D3
:102970001188BFF36F8FBFF34F8F62B6FEE74FF042
:10298000500372B683F31188BFF36F8FBFF34F8F7D
:1029900062B6FEE7036C002BE1D04FF0500372B635
:1029A00083F31188BFF36F8FBFF34F8F62B6FEE7DB
:1029B00000F07AFF074668B9039B002B5ED04FF00A
:1029C000500372B683F31188BFF36F8FBFF34F8F3D
:1029D00062B6FEE7002751E0204601F013FE0146F3
:1029E0000095039B32465A2002F01CF82A463146D5
:1029F0002046FFF76FFE636A7BB948B14FF0E023D2
:102A00004FF08052C3F8042DBFF34F8FBFF36F8F89
:102A1000FFF716FC012007B0F0BD04F1240000F020
:102A200095FE0028F4D04FF0E0234FF08052C3F819
:102A3000042DBFF34F8FBFF36F8FE9E7FFF700FC63
:102A4000204601F0DFFD01460095039B32465A20E7
:102A500001F0E8FF0020DEE704A800F0C1FE012736
:102A600019E0002384F8443021E0002384F8453045
:102A700023E02046FFF77BFE00F022FDFFF7BAFBC4
:102A8000A26BE36B9A42A7D3022DA5D0039B002B28
:102A9000D4D0002FE0D0FFF7D3FB00F06BFCFFF7A2
:102AA000A9FB94F8442052B2B2F1FF3FD9D094F878
:102AB000452052B2B2F1FF3FD7D0FFF7C1FB03A9C7
:102AC00004A800F099FED8B92046FFF7E7FD0028DA
:102AD000CFD0039904F1100000F0FCFD2046FFF771
:102AE00046FE00F0EDFC0028C8D14FF0E0234FF087
:102AF0008052C3F8042DBFF34F8FBFF36F8FBDE734
:102B00002046FFF734FE00F0DBFC204601F07AFDA2
:102B100001460095039B32465A2001F083FF0020B6
:102B200079E72DE9F843A0B10F4615461C46064645
:102B3000D1B1022C26D1F36B012B23D04FF05003DF
:102B400072B683F31188BFF36F8FBFF34F8F62B6F6
:102B5000FEE74FF0500372B683F31188BFF36F8F17
:102B6000BFF34F8F62B6FEE7036C002BE1D04FF04E
:102B7000500372B683F31188BFF36F8FBFF34F8F8B
:102B800062B6FEE7FFF73CFCEFF311894FF050030C
:102B900072B683F31188BFF36F8FBFF34F8F62B6A6
:102BA000B26BF36B9A4201D3022C2AD196F845807E
:102BB0004FFA88F8304601F025FD01462A4660208C
:102BC00001F0B4FE224639463046FFF783FDB8F1E6
:102BD000FF3F09D008F101035BB286F845300120C0
:102BE00089F31188BDE8F883736A0BB90120F7E710
:102BF00006F1240000F0AAFD68B175B1012028603B
:102C0000EEE7304601F0FEFC01462A46602001F066
:102C10008DFE0020E4E70120E2E70120E0E7F0B5C7
:102C200087B00392A8B10F460446E9B100F03CFE1C
:102C3000064638BB039B002B00F083804FF0500307
:102C400072B683F31188BFF36F8FBFF34F8F62B6F5
:102C5000FEE74FF0500372B683F31188BFF36F8F16
:102C6000BFF34F8F62B6FEE7036C002BDED04FF050
:102C7000500372B683F31188BFF36F8FBFF34F8F8A
:102C800062B6FEE700265CE039462046FFF75DFDB0
:102C9000204601F0B7FC0646002001F0B3FC0246D6
:102CA00001230093039B31465C2001F0BBFE013DF4
:102CB000A563236923B9FFF7C3FA012007B0F0BD6C
:102CC00004F1100000F042FD0028F4D04FF0E023A2
:102CD0004FF08052C3F8042DBFF34F8FBFF36F8FB7
:102CE000E9E7FFF7ADFA204601F08CFC044600202E
:102CF00001F088FC024601230093039B21465C20DF
:102D000001F090FE0020D9E704A800F069FD01263B
:102D100021E0002384F8443029E0002384F8453082
:102D20002BE02046FFF723FD00F0CAFB09E0204618
:102D3000FFF71DFD00F0C4FB2046FFF7BEFC002896
:102D40003FD1FFF757FAA56B002D9DD1039B002BB8
:102D5000C7D0002ED8D0FFF773FA00F00BFBFFF7B7
:102D600049FA94F844305BB2B3F1FF3FD1D094F804
:102D700045305BB2B3F1FF3FCFD0FFF761FA03A953
:102D800004A800F039FD0028D1D12046FFF795FCBA
:102D90000028C6D0039904F1240000F09BFC2046D3
:102DA000FFF7E5FC00F08CFB0028CAD14FF0E023D0
:102DB0004FF08052C3F8042DBFF34F8FBFF36F8FD6
:102DC000BFE7204601F01EFC0446002001F01AFC7B
:102DD000024601230093039B21465C2001F022FE62
:102DE00000206BE710B50C460023072B12D80A4AC7
:102DF00052F833200AB10133F7E7074A42F833406B
:102E000002EBC303586001F0FDFB0146224671202E
:102E100001F08CFD10BD00BF0C43002070B50446CE
:102E20000D461646FFF7E6F994F844305BB2B3F16D
:102E3000FF3F0DD094F845305BB2B3F1FF3F0BD0AC
:102E4000FFF7FEF9A36B5BB12046FFF790FC70BD66
:102E5000002384F84430EDE7002384F84530EFE7A1
:102E60003246294604F1240000F04EFCECE7002332
:102E700001E0013001330278A52AFAD0C3F38F00B4
:102E800070470000084B1B681B6823B9074B4FF0C5
:102E9000FF321A607047044B1B68DB68DB685A68B6
:102EA000024B1A60704700BF50430020FC470020CF
:102EB0002DE9F04780460D4617469946089EDDF8F5
:102EC00024A00A9C9200A521206B02F08FF8236BAE
:102ED0006FF040423A4403EB820727F00707B5B38F
:102EE0004FF0000CBCF10F0F0BD815F80C2004EBC1
:102EF0000C0383F8342015F80C3013B10CF1010CDD
:102F0000F0E7002384F84330372E00D93726E662F5
:102F1000E66400252565201DFFF7C3F804F11800BD
:102F2000FFF7BFF82461C6F13806A66164626565E3
:102F300084F858504A4641463846FFF72FF920603A
:102F4000BAF1000F01D0CAF80040BDE8F0870023B5
:102F500084F83430D8E7000038B5002407E004EBEB
:102F6000840293000E481844FFF790F80134372C80
:102F7000F5D90C4D2846FFF789F80B4C2046FFF792
:102F800085F80A48FFF782F80948FFF77FF80948F3
:102F9000FFF77CF8084B1D60084B1C6038BD00BF74
:102FA00058430020D0470020E44700200448002078
:102FB000304800201C48002050430020544300208B
:102FC00010B582B00446FFF715F92B4A1368013398
:102FD00013602A4B1B685BB1294B1B686BB9274BED
:102FE0001B68DA6AE36A9A4207D8244B1C6004E043
:102FF000224B1C601368012B3BD0224A136801331B
:103000001360636464B1204601F03EFE236B2268C6
:10301000D21A0092E26A04F13401204601F024FF42
:10302000204601F079FEE06A174B1B68984201D9EF
:10303000154B186000EB8000211D144B03EB800042
:10304000FFF732F8FFF7FCF80D4B1B687BB10B4B19
:103050001B68DA6AE36A9A4209D24FF0E0234FF024
:103060008052C3F8042DBFF34F8FBFF36F8F02B0B0
:1030700010BDFFF771FFC0E7B84700204C430020A8
:1030800018480020C8470020CC47002058430020A3
:1030900010B5044690F8593073B1012B13D0022BB0
:1030A00010D04FF0500372B683F31188BFF36F8FC7
:1030B000BFF34F8F62B6FEE7006BFFF7B3FA20460F
:1030C000FFF7B0FA10BDFFF7ADFAFBE70F4B1B6837
:1030D000D3B110B5FFF78EF80D4BDB68DC68201D0F
:1030E000FFF706F80B4A1368013B1360074A1368A1
:1030F000013B1360FFF7A4F82046FFF7C9FF034B1D
:103100001B68002BE6D110BD704700BFBC470020F4
:1031100030480020B847002008B5FFF7D7FF074B1D
:103120001B68012BF9D94FF0E0234FF08052C3F810
:10313000042DBFF34F8FBFF36F8FEEE7584300208E
:1031400070B504460D46194B1E68194B18680430BB
:10315000FEF7CEFFB4F1FF3F14BF00230123002D83
:1031600008BF00236BB93444114B1B685C60A64256
:103170000ED9104B18680E4B19680431FEF79FFFEB
:1031800070BD0B4B196804310B48FEF78DFFF7E754
:103190000A4B1868064B19680431FEF790FF084B7C
:1031A0001B68A342ECD9064B1C60E9E744480020A9
:1031B0004C430020544300201C4800205043002072
:1031C000FC47002030B587B00B9C8CB10C9DD5B16D
:1031D0005C250495049D5C2D20D04FF0500372B601
:1031E00083F31188BFF36F8FBFF34F8F62B6FEE793
:1031F0004FF0500372B683F31188BFF36F8FBFF3A4
:103200004F8F62B6FEE74FF0500372B683F311881A
:10321000BFF36F8FBFF34F8F62B6FEE7049D0C9D27
:103220002C63022485F8594000240394029505ACD0
:1032300001940A9C0094FFF73BFE0C98FFF7C0FE38
:10324000059807B030BD2DE9F04385B007468846A4
:1032500014461E469000FFF769F900B381465C20D2
:10326000FFF764F90546B0B1C0F83090E5B100232E
:1032700085F85930039302950D9B01930C9B0093A5
:103280003346224641463846FFF712FE2846FFF7EE
:1032900097FE012005E04846FFF7C4F9E6E74FF046
:1032A000FF3005B0BDE8F0834FF0FF30F9E70000D4
:1032B00010B588B000240594069407AA06A905A8AD
:1032C000FEF7CCFE059B0293069B019300942346D8
:1032D000079A21492148FFF775FF214B186040B13B
:1032E00000F0B6FB012806D0B0F1FF3F29D008B0AE
:1032F00010BD0020F6E74FF0500372B683F311883B
:10330000BFF36F8FBFF34F8F62B6164B4FF0FF3294
:103310001A60154B01221A60144B00221A60144BDC
:10332000186805220C49343001F042FE30B1104BD0
:10333000186801F0CDFCFEF7F9FFD8E701F090FC2A
:10334000F9E74FF0500372B683F31188BFF36F8F24
:10335000BFF34F8F62B6FEE7145000081931000822
:10336000F8470020FC47002018480020444800206F
:103370004C430020024A136801331360704700BFBA
:10338000C4470020014B1868704700BF4448002024
:1033900008B5FFF735F8014B186808BD4448002010
:1033A000F8B53C4B1B68002B69D13B4B1D680135C0
:1033B0001D60D5B9394B1B681B6853B14FF05003E2
:1033C00072B683F31188BFF36F8FBFF34F8F62B66E
:1033D000FEE7324A1168324B186810601960314AB2
:1033E000136801331360FFF74DFD2F4B1B68AB4291
:1033F0003BD900272D4B1B68DB6A03EB83039A0044
:103400002B4B9B58012B3FD901273DE00127234B34
:103410001B681B685BB3214B1B68DB68DC68636857
:103420009D4229D3261D3046FEF762FEA36A1BB1DA
:1034300004F11800FEF75CFE204601F06DFCE36A23
:103440001C4A1268934201D91A4A136003EB8303A2
:103450009A00314616481044FEF726FEE26A134BE6
:103460001B68DB6A9A42D1D2D1E70027CFE70E4B27
:103470004FF0FF321A60BDE70B4A1360BAE70E4AFD
:1034800013680133136000270C4B1B6803B101273D
:103490003846F8BDC447002044480020504300206F
:1034A0005443002000480020FC4700204C430020EB
:1034B00058430020CC470020C04700204848002047
:1034C00038B5374B1B6853B94FF0500372B683F3CE
:1034D0001188BFF36F8FBFF34F8F62B6FEE7FEF721
:1034E00089FE2F4B1A68013A1A601B68002B52D1D3
:1034F0002C4B1B680BB900244EE000242A4B1B68A0
:1035000033B3294BDB68DC6804F11800FEF7F0FDEB
:10351000251D2846FEF7ECFD204601F0FDFBE06A84
:10352000224B1B68984201D9204B186000EB8000A9
:1035300029461F4B03EB8000FEF7B6FDE26A1D4BE8
:103540001B68DB6A9A42D9D31B4B01221A60D5E76C
:103550000CB1FFF797FC194B1C6884B9164B1C681B
:10356000D4B14FF0E0234FF08052C3F8042DBFF3E5
:103570004F8FBFF36F8F01240EE0013C07D0FFF7A0
:103580000FFF0028F9D00C4B01221A60F5E70B4B16
:1035900000221A60E2E70024FEF752FE204638BD02
:1035A000C4470020B847002004480020CC47002032
:1035B000584300204C43002048480020C0470020CA
:1035C00010B5D8B10446134B1B6853B14FF05003EC
:1035D00072B683F31188BFF36F8FBFF34F8F62B65C
:1035E000FEE7FFF7C7FE2146232001F07FF9002107
:1035F0002046FFF7A5FDFFF763FF48B94FF0E02332
:103600004FF08052C3F8042DBFF34F8FBFF36F8F7D
:1036100010BD00BFC447002008B5284B1B681BB174
:10362000274B01221A6008BD254B00221A60254B4A
:103630001B6803EB8302920023498A586AB90BB1D5
:10364000013BF6E74FF0500372B683F31188BFF3E6
:103650006F8FBFF34F8F62B6FEE703EB830201EB80
:10366000820250684068506003EB83029200083287
:103670000A44904216D003EB8301134A02EB810205
:103680005268D168114A11600E490B60106805221A
:103690000F49343001F08CFC60B10C4B186801F01C
:1036A00017FBC0E7406803EB8301074A02EB810286
:1036B0005060E0E701F0D4FAB5E700BFC44700204E
:1036C00048480020CC470020584300204C430020AD
:1036D0001450000858B110B50C460A4A1168183148
:1036E000FEF7EDFC01212046FFF72AFD10BD4FF04B
:1036F000500372B683F31188BFF36F8FBFF34F8F00
:1037000062B6FEE74C43002038B588B10D4614463A
:103710000D4A11681831FEF7C7FC0CB14FF0FF35A8
:10372000242001F0CFF821462846FFF709FD38BDD7
:103730004FF0500372B683F31188BFF36F8FBFF35E
:103740004F8F62B6FEE700BF4C43002038B5C36818
:10375000DC683CB304F118052846FEF7C9FC1A4B97
:103760001B6853BB251D2846FEF7C2FC204601F00E
:10377000D3FAE06A154B1B68984201D9134B1860C5
:1037800000EB80002946124B03EB8000FEF78CFC17
:10379000E26A104B1B68DB6A9A4213D901200E4B78
:1037A000186038BD4FF0500372B683F31188BFF331
:1037B0006F8FBFF34F8F62B6FEE729460748FEF7CB
:1037C00073FCE5E70020ECE7C4470020CC4700206D
:1037D000584300204C430020484800200448002063
:1037E000034B1B680360034B1B684360704700BFBB
:1037F0000048002044480020F8B5C8B10C460546F2
:1038000009B3FEF7F7FC1D4B19686B68C81A2268EC
:10381000B2F1FF3F2AD01A4E36682F68B74201D066
:103820008B4228D9824219D80023236001241EE04C
:103830004FF0500372B683F31188BFF36F8FBFF35D
:103840004F8F62B6FEE74FF0500372B683F31188D4
:10385000BFF36F8FBFF34F8F62B6FEE75B1A13445F
:1038600023602846FFF7BCFF002400E00024FEF799
:10387000E7FC2046F8BD0124F9E700BF44480020DA
:1038800000480020014B01221A6070474848002080
:1038900008B5034618B1186BFFF7E9FA08BD014BEC
:1038A0001B68F8E74C430020054B1B6833B1054B00
:1038B0001B680BB100207047022070470120704741
:1038C00018480020C4470020002847D038B50446D7
:1038D000244B1B6883420AD04FF0500372B683F327
:1038E0001188BFF36F8FBFF34F8F62B6FEE7036D92
:1038F00053B94FF0500372B683F31188BFF36F8F43
:10390000BFF34F8F62B6FEE7013B0365C16AC26C2D
:10391000914225D00BB1002038BD051D2846FEF789
:10392000E7FB21464A2000F0E1FFE36CE362C3F1CC
:103930003803A361204601F0EFF9E06A0A4B1B68E7
:10394000984201D9084B186000EB80002946074BCC
:1039500003EB8000FEF7A8FB0120DDE700207047A5
:103960000020D9E74C430020CC47002058430020DA
:10397000064B1A6813682BB90123036023B9D36877
:10398000186870470023F8E7002070474C48002073
:1039900008B54160006191420CD8D21A83699A42FD
:1039A00001D3012008BD011D0B4B1868FEF787FBF2
:1039B0000020F7E79A422CBF00220122994238BF2B
:1039C00000220AB10120EDE7011D044B1868FEF743
:1039D00076FB0020E6E700BF504800204C4800205E
:1039E00030B583B0FEF706FC114B1B681BB1FEF728
:1039F00027FC03B030BD0F4D2846FEF747FB0E4CA9
:103A00002046FEF743FB0D4B1D600D4B1C60002351
:103A100000930C4B0C4A10210A20FEF73BFF044B8D
:103A200018600028E3D00949FFF7DCF9DFE700BFA1
:103A300070490020F4480020084900204C4800202C
:103A40005048002020490020544800201C50000805
:103A500010B588B0FFF7C4FF134B1B68CBB100242F
:103A60000594069407AA06A905A8FEF703FB059B83
:103A70000293069B0193022300932346079A0B4966
:103A80000B48FFF79FFB0B4B186010B1012008B0EB
:103A900010BD4FF0500372B683F31188BFF36F8FE0
:103AA000BFF34F8F62B6FEE7704900202450000834
:103AB000D13D000874490020B8B19C46034619481E
:103AC000006868B300B585B00091019202930529A2
:103AD0001EDCFFF7E9FE022812D000231A466946D1
:103AE00010480068FEF733FF17E04FF0500372B63E
:103AF00083F31188BFF36F8FBFF34F8F62B6FEE77A
:103B00000023069A694607480068FEF720FF04E094
:103B1000002362466946FFF704F805B05DF804FB30
:103B2000002070477049002070B582B01C4B1B68A4
:103B30001A6872B3DB681E68DC68251D2846FEF72C
:103B4000D7FA236A2046984794F8283013F0040FD8
:103B5000ECD0A36933449E4207D2636024612946B6
:103B60000F4B1868FEF7ABFAE0E7002100910B4617
:103B700032462046FFF7A0FF0028D7D14FF0500370
:103B800072B683F31188BFF36F8FBFF34F8F62B6A6
:103B9000FEE7044A106802490860136002B070BD75
:103BA0004C4800205048002038B50546FFF7EAFB96
:103BB0000446074B1B68834205D800232B60044B47
:103BC0001C60204638BDFFF7AFFF01232B60F6E7EE
:103BD0001C49002070B582B006460D461849096898
:103BE000C968CC68201DFEF783FA94F828C01CF041
:103BF000040F08D12CF0010C84F828C0236A204659
:103C0000984702B070BDA16933462A463144204628
:103C1000FFF7BEFE0028F1D0002100910B4632468E
:103C20002046FFF749FF0028E8D14FF0500372B655
:103C300083F31188BFF36F8FBFF34F8F62B6FEE738
:103C40004C48002070B582B006460C46FFF792FB48
:103C500001A8FFF7A9FF019B3BBB0546B04228BF67
:103C6000002C19D024B1134A12681268DAB9012461
:103C70002246711B104B1868FFF7D0F8FFF720FCA5
:103C8000A8B94FF0E0234FF08052C3F8042DBFF3E2
:103C90004F8FBFF36F8F0AE0FFF712FC29463046C3
:103CA000FFF798FF03E01C46E2E7FFF709FC02B0CC
:103CB00070BD00BF504800207049002010B588B08A
:103CC00002E0049B002B0FDA002204A93F4B186886
:103CD000FEF7A5FF002877D0049B002BF1DA0799A7
:103CE0000698059B9847ECE7069C636913B1201D75
:103CF000FEF7FEF903A8FFF757FF049B092BE3D853
:103D0000DFE803F00505053239540505323994F82A
:103D1000283043F0010384F82830059BA16902464E
:103D200019442046FFF734FE0028CDD0236A2046F0
:103D3000984794F8283013F0040FC5D0A2690021E9
:103D400000910B46059802442046FFF7B5FE002877
:103D5000BAD14FF0500372B683F31188BFF36F8F5F
:103D6000BFF34F8F62B6FEE794F8283023F00103CB
:103D700084F82830A8E794F8283043F0010384F849
:103D800028300599A16131B103460246014420461D
:103D9000FFF7FEFD98E74FF0500372B683F31188EA
:103DA000BFF36F8FBFF34F8F62B6FEE794F82830F2
:103DB00013F0020F04D023F0010384F8283083E7C6
:103DC0002046FEF72FFC7FE708B010BD70490020A9
:103DD00000B583B001A8FFF7CBFD0199FFF732FFD3
:103DE000FFF76CFFF6E7000030B58BB000240594B8
:103DF00006940794089409941C4B1A6B42F0010234
:103E00001A631A6B02F001020192019A1A6B42F0D6
:103E100002021A631A6B02F002020292029A1A6BF1
:103E200042F480721A631A6B02F480720392039A4E
:103E30001A6B42F080021A631B6B03F08003049339
:103E4000049B0B4D22464FF400612846FCF7C8FC4A
:103E50004FF400630593012306930794089405A982
:103E60002846FCF7CBFB0BB030BD00BF003802404A
:103E70000020024008B502210648FCF7B7FC1423D5
:103E8000092205490548FDF75EFF6420FEF7C8F8E2
:103E9000F1E700BF002002402C5000087C490020C0
:103EA00008B50268034B9A4200D008BDFCF73EFB00
:103EB000FBE700BF0000014072B6FEE708B50B4803
:103EC0000B4B03604FF4E133436000238360C36016
:103ED00003610C2242618361C36103624362FDF7A7
:103EE000C0FF00B908BDFFF7E7FF00BF7C49002015
:103EF0000010014000B5B5B03022002128A801F023
:103F000075F80021239124912591269127918422EF
:103F100002A801F06BF8284B1A6C42F080521A6428
:103F20001B6C03F080530093009B244B1A6842F4EF
:103F300040421A601B6803F440430193019B012334
:103F400028934FF48033299302232E934FF4800259
:103F50002F92192230924FF4C87231923293092372
:103F6000339328A8FCF78AFCF0B9FCF749FCE8B9C0
:103F70000F23239302232493002325934FF4A0536C
:103F800026934FF480532793062123A8FCF7E2FEE3
:103F900070B9402302930023139302A8FCF7D4FFC7
:103FA00040B935B05DF804FBFFF786FFFFF784FFEB
:103FB000FFF782FFFFF780FF0038024000700040EB
:103FC00008B5FCF7A7FAFFF795FFFFF70DFFFFF71E
:103FD00075FFFDF777FF00F0DFF8054A002105487F
:103FE000FDF7B2FF044B1860FDF78AFFFEE700BF44
:103FF00044500008753E00087849002000B583B0A1
:104000000D4B1A6C42F080521A641A6C02F0805206
:104010000092009A5A6C42F480425A645B6C03F43A
:1040200080430193019B00220F216FF00100FCF7F8
:10403000A1FA03B05DF804FB0038024070B588B007
:10404000002303930493059306930793026803F1F7
:10405000804303F588339A4201D008B070BD03F560
:1040600094335A6C42F010025A645A6C02F01002F7
:104070000092009A1A6B42F002021A631A6B02F065
:1040800002020192019A1A6B42F001021A631B6B41
:1040900003F001030293029B8023039302260496FC
:1040A000032506950724079403A90848FCF7A6FAF8
:1040B0004FF4007303930496002305930695079429
:1040C00003A90348FCF79AFAC7E700BF00040240BF
:1040D0000000024000B589B0014600221920FCF71B
:1040E00049FA1920FCF77CFA154B5A6C42F0010290
:1040F0005A645B6C03F001030193019B02A903A8BE
:10410000FCF704FFFCF7F2FE43000E48A0FB03237C
:104110009B0C013B0C480D4A026040F2E732C26042
:104120004360002303618360FDF788FB18B1012021
:1041300009B05DF804FB0448FDF7DEF9F8E700BFBD
:104140000038024083DE1B43004A0020000001408B
:10415000FEE7FEE7FEE7FEE7FEE7704708B5024828
:10416000FDF716FA08BD00BF004A0020034AD2F846
:10417000883043F47003C2F88830704700ED00E0E7
:1041800008B5034800F052FD024800F04FFD08BD9D
:1041900080500008B450000808B5064B1868064B5C
:1041A000064A014600F0E8F94FF0805000F01AFA94
:1041B00008BD00BF0C0000208141000840510008EC
:1041C000154B03221A615A6114499961144ADA6144
:1041D0004FF480621A6200229A625A62DA621966A9
:1041E00010495966102199661A67DA665A670E4AAD
:1041F0001068C3F80700BFF35F8F0C4A92E8030012
:1042000018609980090C9971BFF35F8F20229A7111
:10421000BFF35F8F704700BF4C4A0020C4500008B6
:10422000044B0020F44A0020D0500008D45000086D
:104230002DE9F047044688469146244B1B78C3B1CC
:1042400004EB4403214A02EBC3031F6FDD6EAF4250
:1042500012D80026ED1B4D4528BF4D463DBB2EB163
:1042600004EB4404194800EBC40427673046BDE85A
:10427000F087FFF7A5FFE3E704EB440A02EBCA0A65
:10428000DAF86860F61B4E4528BF4E46DAF864102F
:1042900032463944404600F09BFEB044A9EB060983
:1042A0003744DAF86830BB42D4D10027D2E704EBB8
:1042B0004403064A02EBC303596E2A46394440467A
:1042C00000F086FE2E442F44C9E700BF4C4A002070
:1042D0002DE9F84304460E46154600EB40032F4AED
:1042E00002EBC302936A576ABB424FD800EB40020D
:1042F0002A4901EBC202D2F82080A8EB070909F194
:10430000FF32954204D913449D4218D9002042E05F
:10431000DFF88880631C03EB430308EBC303586892
:104320002A463146384400F053FEBFF35F8F3D44C8
:1043300004EB440408EBC404656201202BE0431C39
:1043400003EB4303154A02EBC30358684A46314660
:10435000384400F03DFEA7EB08077F1909D1BFF3F1
:104360005F8F04EB44040D4B03EBC4046762012030
:1043700011E0631C03EB4303084A02EBC3033A4614
:1043800006EB0901586800F023FEE8E7DB1B013B60
:10439000AB42BDD20020BDE8F88300BF4C4A0020EC
:1043A000F8B507460E4615461C461F4B1B78002BDA
:1043B00034D0EFF311824FF0200181F311880020F7
:1043C00000F1010C0CEB4C0C174B03EBCC0CDCF8A4
:1043D000043023B10130144B1B698342F0DC124BD3
:1043E0001B6983421DDD104B411C01EB410C4FEA60
:1043F000CC0C43F80C7001EB410103EBC1014E60A2
:1044000000EB400103EBC1031D6200219962596278
:10441000DC62BFF35F8F82F31188F8BDFFF7D0FE37
:10442000C7E74FF0FF30F6E74C4A00202DE9F04196
:1044300004460F46164698461548007810B3022CDD
:1044400023D8EFF311834FF0200181F311885CB181
:1044500004EB44000E4D05EBC00007664666C0F84D
:10446000688000220267C26604EB4404084800EB3F
:10447000C404069A6267BFF35F8F83F3118800203C
:10448000BDE8F081FFF79CFED9E74FF0FF30F7E77A
:104490004C4A002084460B4629B310B4002100E0AA
:1044A00001315C5C002CFBD1914200D80A46FE2A07
:1044B00004D8604600F8012B00210FE0FF218CF8A2
:1044C00000108CF80120110A0CF103008CF8021086
:1044D000F2E713F801CB00F801CB01319142F8D398
:1044E0005DF8044B7047002200F8012B002104E026
:1044F00013F801CB00F801CB01319142F8D370479A
:104500000430704710B584B001238DF80430184B87
:104510005B690DF1050204E063F07F0102F8011B05
:10452000DB097F2BF8D802F8013B124B5C68104B7B
:10453000DB68E31A04E063F07F0102F8011BDB098A
:104540007F2BF8D802F8013B01A9521A084B587882
:10455000FFF7BEFE30B1064BDC601A78013A1A70E4
:1045600004B010BD024A536901335361F8E700BF3C
:10457000104F0020001000E02DE9F04782B0074600
:104580000E4690461D46DFF8589000234FF4806297
:104590000F494846FFF704FFC0B20E4C607020760A
:1045A0004FF0000ACDF800A008230B4A4946FFF758
:1045B0003DFFC4F810A0094B5B68E360C4F820809D
:1045C0006760A660656284F800A002B0BDE8F0876D
:1045D000384F0020104F0020044F0020001000E052
:1045E000DC500008014B1861704700BF104F0020DD
:1045F00008B5034B1B6A13B15B6803B1984708BD4C
:10460000104F0020014B1B69C01A7047104F00204B
:1046100010B5064B1C6824B910BD98472469002CBE
:10462000FAD0E368002BF8D1F8E700BF1C54002053
:1046300010B5EFF311844FF0200181F311880B487E
:10464000FFF75EFF0A4B1B78014604E063F07F0230
:1046500001F8012BDB097F2BF8D801F8013B1B2265
:1046600000F0B2F884F3118810BD00BF3853002069
:104670000C4F002038B5294D01232B70EFF3118426
:104680004FF0200181F311880A2225496878FFF74D
:104690001FFE84F311880A2000F014F9EFF311844F
:1046A0004FF0200181F311881E48FFF729FF6A6847
:1046B000034604E062F07F0103F8011BD2097F2A60
:1046C000F8D803F8012B154A926804E062F07F01E4
:1046D00003F8011BD2097F2AF8D803F8012B0F4AEF
:1046E000126904E062F07F0103F8011BD2097F2AFE
:1046F000F8D8194601F8022B00225A70182200F04F
:1047000063F884F31188054B5B6A03B1984700F0A6
:1047100037F9FFF76DFFFFF78BFF38BD104F002013
:10472000E45000083853002000B583B001220DF199
:104730000701244B187EFFF77BFD002822DD9DF842
:104740000730072B0AD85AB28AB35A1E062A2ED827
:10475000DFE802F0161B1E2124272A007F2B11D030
:10476000802B24D101220DF10701164B187EFFF793
:104770005FFD002806DD9DF8070000F0F1FA01E07A
:10478000FFF778FF03B05DF804FB00F091F9F9E75B
:1047900000F0F6F8F6E7FFF72BFFF3E700F0A4F9D7
:1047A000F0E7FFF745FFEDE7FFF732FFEAE713F029
:1047B000800FE7D001220DF10701024B187EFFF7B1
:1047C00037FDDFE7104F002070B506460C46154652
:1047D000394B1B78012B03D0002B4CD0022B12D06D
:1047E0001F2D05D8344BDB69EB4013F0010F42D18C
:1047F000172D0FD8711E06F8015C304B5D682E4BEB
:10480000DB68EB1A2BE0FFF77DFE2B4B1B78012BAF
:1048100031D1E5E7A31B7F2B12D9DA0906F8012C69
:10482000B01E63F07F0306F8023C7F2D0CD9EB0924
:1048300000F8013C811E65F07F0500F8025CDCE7B2
:10484000701E06F8013CF0E7411E00F8015CD4E759
:10485000224663F07F0002F8010BDB0914467F2B30
:10486000F6D804F8013B621A134B5878FFF730FD75
:10487000A0B1114BDD60104B1B7E114A03EB4301CD
:1048800002EBC101C96E03EB430302EBC3031B6FD1
:10489000994202D0084B9B782BB170BD064A137821
:1048A00001331370E7E7044C0123A370FFF73CFFCB
:1048B0000023A370F1E700BF104F0020001000E0BC
:1048C0004C4A002038B50446EFF311854FF0200123
:1048D00081F311880448FFF713FE01462246FFF7D3
:1048E00073FF85F3118838BD3853002070B5054635
:1048F0000C46EFF311864FF0200181F311880A482E
:10490000FFF7FEFD014604E064F07F0301F8013B80
:10491000E4097F2CF8D801F8014B2A46FFF754FF31
:1049200086F3118870BD00BF38530020F8B50546E6
:104930000F461446EFF311864FF0200181F31188E2
:104940000E48FFF7DDFD014604E067F07F0301F844
:10495000013BFF097F2FF8D801F8017B04E064F0E8
:104960007F0301F8013BE4097F2CF8D801F8014BE3
:104970002A46FFF729FF86F31188F8BD3853002037
:1049800008B5094B1B6A43B11B6833B198470A4607
:1049900001460D20FFF7CAFF08BD044B59680C20E3
:1049A000FFF7A4FFF8E700BF104F0020001000E061
:1049B0002DE9F0410546884617461C46EFF311865F
:1049C0004FF0200181F311881548FFF799FD01464A
:1049D00005E068F07F0301F8013B4FEAD818B8F111
:1049E0007F0FF6D801F8018B04E067F07F0301F830
:1049F000013BFF097F2FF8D801F8017B04E064F048
:104A00007F0301F8013BE4097F2CF8D801F8014B42
:104A10002A46FFF7D9FE86F31188BDE8F08100BF72
:104A2000385300202DE9F8430546894690461F4635
:104A3000089CEFF311864FF0200181F311881B4889
:104A4000FFF75EFD014605E069F07F0301F8013BD9
:104A50004FEAD919B9F17F0FF6D801F8019B05E0AB
:104A600068F07F0301F8013B4FEAD818B8F17F0FD7
:104A7000F6D801F8018B04E067F07F0301F8013BF1
:104A8000FF097F2FF8D801F8017B04E064F07F0371
:104A900001F8013BE4097F2CF8D801F8014B2A46C4
:104AA000FFF792FE86F31188BDE8F88338530020A3
:104AB00010B5EFF311844FF0200181F311880848FD
:104AC000FFF71EFD074B1B7813B984F3118810BD47
:104AD0000B220146FFF778FE024B00221A70F4E722
:104AE00038530020104F002010B5EFF311844FF021
:104AF000200181F311881A48FFF702FD194B5A680B
:104B0000034604E062F07F0103F8011BD2097F2A0B
:104B1000F8D803F8012B134A926804E062F07F0191
:104B200003F8011BD2097F2AF8D803F8012B0D4A9C
:104B3000126904E062F07F0103F8011BD2097F2AA9
:104B4000F8D8194601F8022B00225A701822FFF7F4
:104B50003BFE84F31188034B5B6A03B1984710BD99
:104B600038530020104F002070B50646EFF3118532
:104B70004FF0200181F311882A48FFF7C1FC044659
:104B80003368294A12699B1A04E063F07F0200F837
:104B9000012BDB097F2BF8D800F8013BB36804E058
:104BA00063F07F0200F8012BDB097F2BF8D800F8B7
:104BB000013B20227168FFF76DFC01460922204667
:104BC000FFF702FE3268184B1B69D21A234604E035
:104BD00062F07F0103F8011BD2097F2AF8D803F89D
:104BE000012BF26804E062F07F0103F8011BD20997
:104BF0007F2AF8D803F8012B326904E062F07F01C4
:104C000003F8011BD2097F2AF8D8194601F8022BB4
:104C100000225A7015222046FFF7D6FD85F3118831
:104C200070BD00BF38530020104F002070B50546FE
:104C3000EFF311864FF0200181F311880748FFF749
:104C40005FFC044680222946FFF724FC01460E2221
:104C50002046FFF7B9FD86F3118870BD3853002058
:104C600010B5EFF311844FF0200181F3118805484E
:104C7000FFF746FC01461122FFF7A6FD84F31188D9
:104C800010BD00BF3853002038B50446EFF311853E
:104C90004FF0200181F311880B48FFF731FC0B4BDB
:104CA0001B69E31A014604E063F07F0201F8012B5F
:104CB000DB097F2BF8D801F8013B0822FFF784FDC0
:104CC00085F3118838BD00BF38530020104F0020F5
:104CD00038B50446EFF311854FF0200181F31188B8
:104CE0000B48FFF70DFC0B4B1B69E31A014604E070
:104CF00063F07F0201F8012BDB097F2BF8D801F864
:104D0000013B0422FFF760FD85F3118838BD00BF29
:104D100038530020104F002038B50446EFF31185BA
:104D20004FF0200181F311880B48FFF7E9FB0B4B93
:104D30001B69E31A014604E063F07F0201F8012BCE
:104D4000DB097F2BF8D801F8013B0622FFF73CFD79
:104D500085F3118838BD00BF38530020104F002064
:104D6000F8B51B4B1C6894B300230746984203D93F
:104D700024690CB10133F8E74CB3EFF311864FF01F
:104D8000200181F311881348FFF7BAFB054604E0C0
:104D900067F07F0300F8013BFF097F2FF8D800F888
:104DA000017BA36804E063F07F0200F8012BDB09BC
:104DB0007F2BF8D800F8013B80222168FFF76AFBBF
:104DC000014616222846FFF7FFFC86F31188F8BD3E
:104DD0001C5400203853002070B50546EFF31186AF
:104DE0004FF0200181F311880A48FFF789FB044640
:104DF00080222946FFF74EFB0146012301F8023BC2
:104E0000002343701A222046FFF7DEFC86F3118848
:104E100070BD00BF3853002008B5FEF7B9FAC30EC5
:104E20004101091A63F100039B0043EA9173890071
:104E3000091843F10003DB00C80043EA517108BDC3
:104E400010B586B000240194029403940494059450
:104E50000190029103920493089B059301A8FFF728
:104E600083FE06B010BD0000F0B583B005460C46C9
:104E700016461F4605221349204600F099F8D0B186
:104E8000114B1A68072A18D8104B02EB820003EB6B
:104E9000800143F820504C608E60CF60089B0B610E
:104EA0000132094B1A60089B00933B46324621466B
:104EB0002846FFF7C5FF03B0F0BD0548FFF78CFF9C
:104EC000F9E700BF145000082054002024540020AB
:104ED000F0500008F0B583B0002511E00B4E05EB53
:104EE0008504A70006EB8404F059FEF7D1FC20618D
:104EF0000090E368A2686168F059FFF7A1FF0135EF
:104F0000034B1B68AB42E9D803B0F0BD245400202A
:104F100020540020DFF834D00D480E490E4A0023FB
:104F200002E0D458C4500433C4188C42F9D30B4A5D
:104F30000B4C002301E013600432A242FBD3FFF7C5
:104F400015F900F011F8FFF73BF870470000052055
:104F50000000002010000020585100081000002020
:104F6000C4540020FEE7000070B50D4D0D4C641BCD
:104F7000A4100026A64209D10B4D0C4C00F03EF8BF
:104F8000641BA4100026A64205D170BD55F8043B51
:104F900098470136EEE755F8043B98470136F2E7AB
:104FA0005051000850510008505100085451000859
:104FB00010B501390244904201D1002005E0037888
:104FC00011F8014FA34201D0181B10BD0130F2E7C8
:104FD0000A44914200F1FF3300D1704710B511F837
:104FE000014B03F8014F9142F9D110BD0244034631
:104FF000934200D1704703F8011BF9E7F8B500BFF1
:10500000F8BC08BC9E467047F8B500BFF8BC08BCA9
:045010009E46704701
:1050140049444C4500000000546D725100000000EA
:10502400546D722053766300746573743132333473
:105034000D0A000064656661756C745461736B00DD
:1050440038500008000000000000000000000000CC
:105054000000000000020000180000000000000032
:105064000000000000000000000000000102030432
:105074000607080900000000010203044E3D4672C1
:10508400656552544F532044656D6F204170706CB8
:1050940069636174696F6E2C443D436F7274657803
:1050A4002D4D342C4F3D4672656552544F530000CC
:1050B400492331353D5379735469636B0000000013
:1050C4005465726D696E616C0000000052545400A6
:1050D4005345474745520000537973566965770035
:1050E4000000000000000000000000005359535469
:1050F400454D564945573A20436F756C64206E6F91
:1051040074207265636F7264207461736B20696EBE
:10511400666F726D6174696F6E2E204D6178696D72
:10512400756D206E756D626572206F662074617393
:105134006B7320726561636865642E00194E000804
:04514400D54E00083C
:08514800F8B0FF7F0100000038
:04515000F50100085D
:04515400D10100087D
:105158000100000010000000AAAAAAAA0024F40076
:0400000508004F158B
:00000001FF
