:020000040800F2
:10000000000005206199000895980008979800085D
:10001000999800089B9800089D980008000000002F
:10002000000000000000000000000000B1670008B0
:100030009F9800080000000051680008B56800089B
:10004000B1990008B1990008B1990008B199000868
:10005000B1990008B1990008B1990008B199000858
:10006000B1990008B1990008B1990008B199000848
:10007000B1990008B1990008B1990008B199000838
:10008000B1990008B1990008B1990008B199000828
:10009000B1990008B1990008B1990008B199000818
:1000A000B1990008B1990008B1990008B199000808
:1000B000B1990008B1990008B1990008B1990008F8
:1000C000B1990008B1990008B1990008B1990008E8
:1000D000B1990008B1990008B1990008B1990008D8
:1000E000B1990008B1990008B1990008B1990008C8
:1000F000B1990008B1990008B1990008B1990008B8
:10010000B1990008B1990008B1990008B1990008A7
:10011000B1990008B1990008A1980008B1990008A8
:10012000B1990008B1990008B1990008B199000887
:10013000B1990008B1990008B1990008B199000877
:10014000B1990008B1990008B1990008B198000868
:10015000B1990008B1990008B1990008B199000857
:10016000B1990008B1990008B1990008B199000847
:10017000B1990008B1990008B19900080000000089
:10018000B1990008B1990008B1990008B199000827
:10019000B1990008B1990008B1990008B199000817
:1001A000C1980008B1990008D1980008B1990008D9
:1001B000B1990008B1990008B1990008B1990008F7
:0801C000B1990008B199000893
:1001D00010B5054C237833B9044B13B10448AFF381
:1001E00000800123237010BD1400002000000000D7
:1001F000289A000808B5034B1BB103490348AFF325
:10020000008008BD0000000018000020289A0008A7
:1002100053B94AB9002908BF00281CBF4FF0FF316D
:100220004FF0FF3000F074B9ADF1080C6DE904CE69
:1002300000F006F8DDF804E0DDE9022304B07047C1
:100240002DE9F047089D04468E46002B4DD18A4289
:10025000944669D9B2FA82F252B101FA02F3C2F1BC
:10026000200120FA01F10CFA02FC41EA030E94404D
:100270004FEA1C48210CBEFBF8F61FFA8CF708FB6E
:1002800016E341EA034306FB07F199420AD91CEB46
:10029000030306F1FF3080F01F81994240F21C8178
:1002A000023E63445B1AA4B2B3FBF8F008FB1033C0
:1002B00044EA034400FB07F7A7420AD91CEB0404F5
:1002C00000F1FF3380F00A81A74240F207816444C5
:1002D000023840EA0640E41B00261DB1D44000234A
:1002E000C5E900433146BDE8F0878B4209D9002DAE
:1002F00000F0EF800026C5E9000130463146BDE838
:10030000F087B3FA83F6002E4AD18B4202D38242A1
:1003100000F2F980841A61EB030301209E46002D50
:10032000E0D0C5E9004EDDE702B9FFDEB2FA82F2A5
:10033000002A40F09280A1EB0C014FEA1C471FFA03
:100340008CFE0126200CB1FBF7F307FB131140EAEA
:1003500001410EFB03F0884208D91CEB010103F1B7
:10036000FF3802D2884200F2CB804346091AA4B279
:10037000B1FBF7F007FB101144EA01440EFB00FE4D
:10038000A64508D91CEB040400F1FF3102D2A645B2
:1003900000F2BB800846A4EB0E0440EA03409CE751
:1003A000C6F12007B34022FA07FC4CEA030C20FAFE
:1003B00007F401FA06F31C43F9404FEA1C4900FA1E
:1003C00006F3B1FBF9F8200C1FFA8CFE09FB18119B
:1003D00040EA014108FB0EF0884202FA06F20BD90E
:1003E0001CEB010108F1FF3A80F08880884240F25E
:1003F0008580A8F102086144091AA4B2B1FBF9F0A2
:1004000009FB101144EA014100FB0EFE8E4508D99C
:100410001CEB010100F1FF346CD28E456AD9023821
:10042000614440EA0840A0FB0294A1EB0E01A14206
:10043000C846A64656D353D05DB1B3EB080261EB74
:100440000E0101FA07F722FA06F3F1401F43C5E94E
:10045000007100263146BDE8F087C2F12003D84084
:100460000CFA02FC21FA03F3914001434FEA1C47C6
:100470001FFA8CFEB3FBF7F007FB10360B0C43EAB8
:10048000064300FB0EF69E4204FA02F408D91CEB68
:10049000030300F1FF382FD29E422DD90238634466
:1004A0009B1B89B2B3FBF7F607FB163341EA034106
:1004B00006FB0EF38B4208D91CEB010106F1FF3855
:1004C00016D28B4214D9023E6144C91A46EA00464C
:1004D00038E72E46284605E70646E3E61846F8E6DE
:1004E0004B45A9D2B9EB020864EB0C0E0138A3E727
:1004F0004646EAE7204694E74046D1E7D0467BE708
:10050000023B614432E7304609E76444023842E77F
:10051000704700BF08B5032000F0DEF9002009F0A5
:100520007BF908F0DFFB002008BD0000034A1168DA
:10053000034B1B780B441360704700BF3000002052
:1005400000000020014B1868704700BF30000020F9
:1005500038B50446FFF7F6FF0546B4F1FF3F02D079
:10056000044B1B781C44FFF7EDFF401BA042FAD35D
:1005700038BD00BF000000204A4B5A6822F44032C8
:100580005A605A6841680A435A600268536823F403
:100590008073536002685368016943EA0123536022
:1005A0000268536823F0407353600268536881689F
:1005B0000B4353600268936823F4006393600268FE
:1005C0009368C1680B439360826A374B9A4257D055
:1005D0000268936823F07063936002689368816A8D
:1005E0000B4393600268936823F040539360026862
:1005F0009368C16A0B4393600268936823F0020317
:10060000936002689368816943EA4103936090F8BC
:100610002030002B3FD00268536843F400635360DE
:100620000268536823F46043536001684B68426A70
:10063000013A43EA42334B600268D36A23F4700301
:10064000D3620168CB6AC269013A43EA0253CB62C2
:100650000268936823F4007393600268936890F8CB
:10066000301043EA412393600268936823F4806367
:10067000936002689368416943EA812393607047FD
:100680000268936823F0706393600268936823F0B4
:1006900040539360B0E70268536823F400635360EB
:1006A000CAE700BF002301400100000F28B310B5C6
:1006B0000446036C43B1236C13F0100F0BD00120E0
:1006C000002384F83C3010BD08F02CFB0023636449
:1006D00084F83C30EFE7226C094B134043F00203EF
:1006E00023642046FFF748FF00206064236C23F05A
:1006F000030343F001032364E2E70120704700BFD6
:10070000FDEEFFFF30B482B00023019390F83C303F
:10071000012B00F0D580012380F83C300B68B3F149
:10072000004F18BF092B23D90468E2689BB203EB82
:1007300043031E3B4FF0070C0CFA03F322EA0303BA
:10074000E3600B685F4A93420BD00568EA688C68E7
:100750009BB203EB43031E3B04FA03F31343EB602A
:100760001CE00268D3688C6843EA0463D36015E038
:10077000046822699BB203EB43034FF0070C0CFAA9
:1007800003F322EA03032361046822690B8803EB65
:1007900043038D6805FA03F3134323614B68062B6B
:1007A0002AD80468626B03EB8303053B4FF01F0CF0
:1007B0000CFA03F322EA030363630468626B4B6879
:1007C00003EB8303053BB1F800C00CFA03F31343BA
:1007D000636302683C4B9A423ED002683A4B9A42AD
:1007E00044D00268384B9A4249D0002380F83C300C
:1007F000184602B030BC70470C2B16D805682A6B1F
:1008000003EB8303233B1F2404FA03F322EA0303CD
:100810002B6305682A6B4B6803EB8303233B0C882F
:1008200004FA03F313432B63D3E70568EA6A03EB87
:100830008303413B1F2404FA03F322EA0303EB6220
:100840000568EA6A4B6803EB8303413B0C8804FAB2
:1008500003F31343EB62BCE70B68B3F1004FBCD169
:100860001A4A536823F440035360B6E70B68122B0F
:10087000B7D1164A536843F480035360B1E70B685D
:10088000104A112B18BF9342AFD1104A536843F45A
:10089000000353600A680B4B9A42A6D10C4B1B68AD
:1008A0000C4AA2FB03239B0C03EB83035B00019325
:1008B00002E0019B013B0193019B002BF9D194E7DE
:1008C000022096E7120000100020014000230140A2
:1008D0001000002083DE1B430649CB6823F4E0634D
:1008E0001B041B0C000200F4E0600343024A1A439D
:1008F000CA60704700ED00E00000FA0500B5174B34
:10090000DB68C3F30223C3F1070CBCF1040F28BF5B
:100910004FF0040C03F1040EBEF1060F14D9033B93
:100920004FF0FF3E0EFA0CFC21EA0C0199400EFA42
:1009300003F322EA03031943002807DB0901C9B2C4
:10094000074B19545DF804FB0023E9E700F00F00A2
:100950000901C9B2034B1954F4E700BF00ED00E0F0
:1009600000E400E014ED00E0002807DB00F01F02C7
:10097000400901239340024A42F82030704700BFEB
:1009800000E100E0002838D010B50446437F1BB3D7
:100990000223637723791BBB2368194A5A612268B3
:1009A000936823F018039360637913BB23684FF0B7
:1009B000FF321A612268936823F0600361690B4378
:1009C00093602268936823F08003A1690B439360CE
:1009D00001236377002010BD037708F0E7F9D7E71C
:1009E000E268A168204600F00DF80028DCD0012064
:1009F000F1E7236822691A61DCE70120704700BF34
:100A0000B71DC10410B41F231C46013B34B103F0D1
:100A10001F0C21FA0CFC1CF0010FF5D0182A22D86B
:100A2000DFE802F00F212121212121211D21212197
:100A30002121212119212121212121210D00062BF4
:100A400015D80368596101688B6823F018031A43AD
:100A50008A60002008E0072BF3D9012004E00F2B67
:100A6000EFD9012000E001205DF8044B7047012020
:100A7000FAE70000002848D010B5044690F8353059
:100A8000002B32D0022384F83530A3690BB1002348
:100A90006362226811681E4B0B4013602268116864
:100AA000636860690343E068034320690343A06807
:100AB0000343A0690343206A0343606A0343A06AB7
:100AC0000343E06A0343206B03430B4313606368F3
:100AD000102B0DD02268D36843F01E03D360002092
:100AE000E064012384F8353010BD08F075F9C9E7DA
:100AF000237F627F43EA0223A27F43EA0243E17F2E
:100B0000226843EA01639361E4E70120704700BF74
:100B100007F0E0FF30B405682C6824F480242C60D2
:100B2000046863608368402B05D00368996003689C
:100B3000DA6030BC704703689A600368D960F8E7F0
:100B400038B50446856D90F83400012830D0012076
:100B500084F8340094F83500C0B2012804D0002392
:100B600084F83430022038BD022084F8350000209B
:100B700060652046FFF7CEFFE26D3F239340AB60F8
:100B80002268136843F0160313602268536943F028
:100B900080035361236C23B12268136843F0080378
:100BA00013602268136843F0010313600020DAE742
:100BB0000220D8E7406D704738B310B5044690F86E
:100BC0003930EBB1022384F839302268136823F4FA
:100BD000403361680B4313602268536B23F00703B3
:100BE000A1680B4353632268116C094B0B40E16809
:100BF0000B4313640020E063012384F8393010BDF7
:100C000080F8383008F072F9DCE70120704700BF47
:100C100000C0FFFF7047704770B5044603685D6809
:100C20001E6815F0010F16D016F4807F13D01A68D5
:100C300022F480721A60C36B43F00103C36303683C
:100C400001229A60042380F83930002380F838307C
:100C5000436903B1984715F0200F18D016F4005FD0
:100C600015D02268136823F40053136023682022F0
:100C70009A60E36B43F00203E363042384F83930A2
:100C8000002384F8383063690BB12046984715F08B
:100C9000080F18D016F4006F15D02268136823F4DB
:100CA00000631360236808229A60E36B43F0040337
:100CB000E363042384F83930002384F8383063690F
:100CC0000BB12046984715F0040F02D016F4806F40
:100CD00020D115F0020F16D016F4007F13D0226831
:100CE000136823F400731360236802229A60E36B95
:100CF000E363012384F83930002384F83830236912
:100D00000BB12046984715F0100F02D016F4805F03
:100D10000CD170BD2268136823F4806313602368CC
:100D200004229A602046FFF775FFD2E72268136815
:100D300023F480531360236810229A60E36BE3630B
:100D4000012384F83930002384F838302046FFF737
:100D500062FFDEE790F83830012B59D030B4012320
:100D600080F83830022380F8393000EB0113DA695B
:100D70008B1C1B01C35842EA0343093A012A1ED9BE
:100D80008A1C00EB0212526843EA026341BB04680A
:100D9000656A204A2A4013436362026800EB01132C
:100DA0009C699461DB69093B012B10D9012380F810
:100DB0003930002380F83830184630BC70478A1C20
:100DC00000EB0212526802F07F421343DEE7023169
:100DD00000EB01114B68026823F07F439362E5E763
:100DE0000468E5690B4A2A401343E361026800EB9B
:100DF00001139C691461DB69093B012BD6D80231D0
:100E000000EB01114B68026823F07F431362CDE7CA
:100E100002207047F0FFFC005079137943EA002369
:100E200007480B50D07893781B0443EA006350784E
:100E300043EA002312781343024A8B50704700BFE5
:100E400040800240448002402DE9F041AEB00546AA
:100E500029B14FF40063C3604FF4804383600023E3
:100E6000119312931393149315931693EB69002B1C
:100E700040F0A3804FF4806317934FF400731893EE
:100E8000002419941A941B941C941D9440271E97B7
:100E90001F9420942194229423942494259426949E
:100EA00080262796289429942A942B942C942D9468
:100EB00029680B68464A1A40AB68E86803431798EC
:100EC000034343F4007313430B602B68D3F8008093
:100ED0000120FFF73DFB2B68C3F800802B685F60A3
:100EE0002B685F680120FFF733FB2B685F602B687E
:100EF0009C602B68DC602A68936923F0BE031B04A6
:100F00001B0C334393612B689F690120FFF720FB83
:100F10002B689F612B68DC612B68DF690120FFF77C
:100F200017FB2B68DF6101944FF000730293039469
:100F30004FF4001204920594069407940894042236
:100F400009920A934FF480330B934FF480030C9370
:100F50004FF400530D930E960F9410942B6803F5E5
:100F600080539A691B4911401B4A0A439A612B68B6
:100F700003F580539C690120FFF7EAFA2B6803F51B
:100F800080539C612B6803F58053144A1A602B68C8
:100F900003F580531C680120FFF7DAFA2B6803F58C
:100FA00080531C60AB69012B0AD06A690021284676
:100FB000FFF732FF2EB0BDE8F081002317935CE706
:100FC0002B6803F58053D969054A0A43DA61ECE7D7
:100FD0000F8120FF233FDEF8040020028020C102A1
:100FE00040000100F8B590F84430DBB2822B33D0DA
:100FF00005461646822380F844300068026902F0F4
:101000001C022B8ADB029BB213438C0104F4F864AC
:101010001C4344F001040461FFF794FA074601E021
:101020002B681C6914F0010F0DD0FFF78BFAC31B5E
:10103000B3F5803FF4D3012385F84430002385F8CD
:101040004530032007E02B685B699BB233600123C6
:1010500085F844300020F8BD0220FCE790F84430C9
:10106000DBB2422B32D070B50546422380F84430C3
:101070000668306900F01C002B8ADB029BB2034338
:101080008C0104F4F8641C4344F0030492B27261CE
:101090002B681C61FFF756FA064601E02B681C69B5
:1010A00014F0010F0DD0FFF74DFA831BB3F5803F0D
:1010B000F4D3012385F84430002385F8453003201C
:1010C00003E0012385F84430002070BD0220704702
:1010D00070B582B000230193002800F00D81044612
:1010E00090F84430002B32D0844B5A6C42F480424A
:1010F0005A645B6C03F480430093009B804B5A68F6
:1011000022F400025A605A68216A0A435A6023682E
:1011100003F580531A6842F001021A60FFF712FAD1
:101120000546236803F58052126812F0010F13D0B0
:10113000FFF708FA401BB0F5FA7FF2D9032584F8CF
:101140004450002384F84530284602B070BD80F832
:10115000453007F0EBFEC7E71D6925F01C0501F0DF
:10116000FDFC684B0344684A934256D245F008059B
:1011700023681D614FF4004200212046FFF76EFFF7
:101180000546002861D140F6FF70FFF7E1F963687A
:10119000002B00F09180FFF7D5F9064601AA012146
:1011A0002046FFF71FFFFFF7CDF9801B41F2883380
:1011B000984252D8019B13F0040FEFD04FF48052A5
:1011C00000212046FFF74AFF002852D1FFF7BAF965
:1011D000064601AA01212046FFF704FFFFF7B2F9F6
:1011E000801B41F2883398424BD8019B13F0200FAB
:1011F000EFD001AA10212046FFF7F4FE00284CD1C1
:10120000019B13F0040F50D04FF40062E26013F022
:10121000020F4DD00023A3605EE03C4B03443C4AE8
:10122000934202D845F00C05A2E73A4B03443A4AF0
:1012300093429DD3394B0344394A934202D845F037
:10124000040595E745F0100592E701212046FFF7D8
:10125000FBFD012584F8445076E701212046FFF785
:10126000F3FD012384F84430002384F8453003253E
:101270006AE701212046FFF7E7FD012584F8445085
:1012800062E701212046FFF7DFFD012384F84430A7
:10129000002384F84530032556E701212046FFF757
:1012A000D3FD012584F844504EE70022E260AEE70A
:1012B0004FF48043A3600FE0E268C2F3CF02A3685B
:1012C000C3F34F031A4300212046FFF7C7FE58B966
:1012D00040F6FF70FFF73CF900212046FFF7B4FD10
:1012E000012384F844302FE701212046FFF7ACFDAD
:1012F000012584F8445027E7012525E700380240FE
:101300000038014000D3CEFEC0E1E40040F1E9FD29
:101310003F787D0100796CFC005A6202001F0AFAD6
:101320007FF0FA0200230F2B00F2E480F0B583B0C7
:101330003AE0092200E00022AA40324302346E4D16
:1013400045F824206D4A14686FEA0C0224EA0C0563
:101350004E6816F4803F01D04CEA0405674C2560C6
:10136000646802EA04054E6816F4003F01D04CEAB6
:101370000405624C6560A46802EA04054E6816F430
:10138000801F01D04CEA04055C4CA560E468224053
:101390004D6815F4001F01D04CEA0402574CE2607E
:1013A00001330F2B00F2A48001229A400C6804EA5A
:1013B000020C32EA0404F3D14C68651E112C18BFEC
:1013C000012D01D9122C12D185685E000324B4408E
:1013D00025EA0405CC68B4402C438460456825EABE
:1013E00002054C68C4F300129A402A434260C56863
:1013F0004FEA430E032404FA0EF4E24325EA0405FF
:101400008C6804FA0EF42C43C4604C68122C18BF8C
:10141000022C0FD1DD08083550F8257003F00704C1
:10142000A6000F24B44027EA04070C69B4403C43EB
:1014300040F82540046814404A6802F0030202FAAA
:101440000EF2224302604A6812F0805FA8D02C4A54
:10145000546C44F480445464526C02F4804201920F
:10146000019A9C08A51C244A52F8256003F0030247
:1014700095000F22AA4026EA0206224A90423FF433
:101480005AAF02F58062904222D002F5806290420B
:1014900020D002F5806290421ED002F58062904218
:1014A0001CD002F5806290421AD002F58062904210
:1014B00018D002F58062904216D002F58062904208
:1014C00014D002F5806290423FF433AF0A2233E732
:1014D000012231E702222FE703222DE704222BE726
:1014E000052229E7062227E7072225E7082223E726
:1014F00003B0F0BD704700BF00380140003C014020
:1015000000380240000002400369194201D0012066
:101510007047002070470AB18161704709048161FA
:101520007047436901EA030221EA030141EA0241EB
:1015300081617047F8B50668346A04F00F07C4F398
:101540004343C4F30A14022B00D0F8BD0546002C17
:10155000FBD02C2303FB0703596C0029F5D02C2367
:1015600003FB07031A6D2244DB6C9A4206D92C2038
:1015700000FB0755042385F86030E6E72246304635
:1015800004F0BEFC2C2303FB07535A6C22445A641C
:101590001A6D22441A6506EB4716D6F81025C2F3D9
:1015A000C942B3F84030A342CFD1002ACDD0D6F8FB
:1015B000003523F0804343F00043C6F800352C2368
:1015C00003FB075595F8543083F0010385F8543038
:1015D000BBE730B583B004460568D5F840340193C5
:1015E000D5F840340093009B23F02E030093019B19
:1015F00013F0020F07D0019B13F0010F25D1009BC0
:1016000043F002030093019B13F0080F10D0009BDE
:1016100043F008030093019B13F0040F2DD0A3693E
:10162000022B15D0E368012B22D0204608F07AF96E
:10163000019B13F0200F03D0009B43F02003009385
:10164000009BC5F8403403B030BD08F059F9D6E727
:10165000019B03F4C023B3F5802F04D0012120683F
:1016600004F065FCE1E70221206804F060FCDCE79F
:101670004EF66022C5F80424D7E7204608F058F952
:10168000D6E7F8B505460E46076807EB411707F59C
:10169000A064A36813F0040F3DD00423A360E368A3
:1016A00043F00203E360A36813F4007F40F09080EE
:1016B000A36813F0010F00F0D8802B6943B12C23ED
:1016C00003FB06539A6C2169C1F31201521A1A6581
:1016D0002C2303FB0653012283F861200021D965E6
:1016E000A26093F83F30022B18BF8B427CD0032BB3
:1016F00000F08580012B00F093802B69012B00F016
:101700009F802C2101FB065595F8543083F001038E
:1017100085F8543067E0A36813F4807F06D1A3688E
:1017200013F0200F13D02023A360BCE74FF4807385
:10173000A3602C2303FB0103072283F86120E368E5
:1017400043F00203E360006804F015FCABE7A36814
:1017500013F0080F17D1A36813F4806F25D1A36885
:1017600013F0800F9FD0E36843F00203E3602C2363
:1017700003FB0103062283F86120006804F0FBFBF1
:101780008023A3608FE7E36843F00203E3602C2328
:1017900003FB0103052283F861201023A3600823C3
:1017A000A360006804F0E7FB7DE7E36843F0020311
:1017B000E3602C2303FB0103082283F8612010233C
:1017C000A3604FF48063A360006804F0D4FB6AE771
:1017D000E36843F00203E3603146286804F0CBFB82
:1017E0004FF40073A360F8BDE36843F00203E360C5
:1017F0003146286804F0BFFB1023A3607DE7D7F8CB
:10180000003543F00053C7F800352C2303FB065383
:10181000012283F860203146284608F07DF86CE705
:101820002C2303FB0653012283F8602093F8541005
:10183000514083F854103146284608F06DF85CE7B3
:101840002C2303FB06539A6CB3F84030B2FBF3F33E
:1018500013F0010FC7D02C2303FB065595F8543025
:1018600083F0010385F85430BDE7A36813F0020F3D
:1018700064D0E36823F00203E3602C2303FB0653E8
:1018800093F86130012B14D0052B24D0082B18BFFE
:10189000062B36D12C2202FB0652D36D0133D365C1
:1018A000022B1FD913460022DA65042283F8602038
:1018B00005E02C2303FB0653012283F8602002235A
:1018C000A3602C2303FB065393F86020314628467F
:1018D00008F022F887E72C2303FB0653052283F840
:1018E0006020ECE72C2303FB0653022283F86020E0
:1018F000D7F8003523F0804343F00043C7F80035A4
:10190000DDE7032B0BD0072BD9D12C2303FB065388
:10191000DA6D0132DA65042283F86020CFE72C23E8
:1019200003FB0653022283F86020D7F8003523F02A
:10193000804343F00043C7F80035C0E7A36813F0C5
:10194000100F3FF450AF2C2303FB065393F83F30A6
:10195000032B0DD0022B18BF002B06D12C2303FB29
:1019600006530022DA652B6983B11023A3603AE79E
:101970002C2303FB06530022DA65E36843F00203DD
:10198000E3603146286804F0F6FAEEE72C2303FB07
:101990000653032283F86120E36843F00203E36007
:1019A0003146286804F0E7FADFE770B5036803EB17
:1019B000411303F5A064A26812F0040F06D00423BB
:1019C000A360E36843F00203E36070BD05460E4682
:1019D000A26812F0200F18D02023A3602C2303FB51
:1019E000010393F83D30012BEFD12C2303FB0103BE
:1019F000002283F83D20022283F86020E36813432D
:101A0000E360006804F0B7FADFE7A26812F4007F31
:101A100024D1A26812F0010F2BD02C2303FB010369
:101A20000022DA65A36813F0400F07D02C2303FBD4
:101A30000103012283F83D204023A360E36843F0C3
:101A40000203E3603146286804F095FA0123A3609D
:101A50002C2101FB065585F86130B6E7E36843F0B9
:101A60000203E360006804F086FA4FF40073A36099
:101A7000ABE7A26812F0400F29D1A26812F0080F5C
:101A80003AD1A26812F0100F46D02C2303FB0103B9
:101A90000022DA65032283F8612093F83D305BB9B8
:101AA0002C2303FB010393F83C302BB92C2303FBBD
:101AB0000103012283F83D20E36843F00203E36061
:101AC0003146286804F057FA1023A3607DE72C23E1
:101AD00003FB0103042283F86120012283F83D20E7
:101AE0000022DA65E36843F00203E360006804F073
:101AF00042FA4023A36068E70823A360E36843F049
:101B00000203E360006804F036FA2C2303FB065559
:101B1000052385F8613058E7A26812F0800F29D0BC
:101B2000036983B12C2202FB0102D36D0133D3651B
:101B3000022B16D82C2303FB0105022385F8603005
:101B40008023A36041E72C2303FB0103062283F8D3
:101B50006120E36843F00203E360006804F00BFADD
:101B6000EEE713460022DA65042283F8602007F0CE
:101B7000D3FEE5E7A26812F4806F27D1A26812F0C5
:101B8000020F3FF422AFE26822F00202E2602C2250
:101B900002FB010292F86120012A2AD0032A5BD0BD
:101BA000042A6BD0052A70D0082A18BF062A59D1FA
:101BB0002C2101FB0601CA6D0132CA65022A6AD9CD
:101BC0000022CA65042281F860204BE0E36843F0FC
:101BD0000203E360006804F0CEF91023A3604FF421
:101BE0008063A3602C2303FB0655082385F861302E
:101BF000EBE62C2303FB010383F8602093F83F30CE
:101C0000023BDBB293422DD80369934209D02C23C7
:101C100003FB010393F8552082F0010283F855205D
:101C200020E02C2303FB0103DB6CDBB12C2202FB45
:101C30000102B2F840201344013BB3FBF2F313F06E
:101C4000010F0FD02C2303FB010393F8552082F0E2
:101C5000010283F8552005E02C2303FB0103022237
:101C600083F860200223A3602C2303FB065393F820
:101C700060203146284607F04FFEA6E62C2303FBE2
:101C80000103022283F86020ECE72C2303FB01030D
:101C900083F86020E6E72C2202FB0602022182F88C
:101CA0006010D3F8002522F0804242F00042C3F8D1
:101CB0000025D7E7F8B504460568284604F033F94F
:101CC000012800D0F8BD206804F029F90028F9D0D7
:101CD000206804F024F910F4001F03D023684FF4A7
:101CE00000125A61206804F01AF910F4801F03D022
:101CF00023684FF480125A61206804F010F910F044
:101D0000806F03D023684FF080625A61206804F02E
:101D100006F910F0020F02D0236802225A612068EF
:101D200004F0FDF810F0005F08D023684FF0005277
:101D30005A61D5F8403413F0010F1DD0206804F02B
:101D4000EEF810F0807F1FD1206804F0E8F810F062
:101D5000080F1DD1206804F0E2F810F0100F1ED11A
:101D6000206804F0DCF810F0007FABD0206804F0AD
:101D7000FDF80746002625E0204607F0C7FD0121B3
:101D8000206804F0D4F8D9E72046FFF722FCDBE70F
:101D9000204607F0AFFD236808225A61DAE722687F
:101DA000936923F0100393612046FFF7C3FB226879
:101DB000936943F010039361D2E7F1B22046FFF735
:101DC000F4FD0136A368B34212D906F00F0327FAD7
:101DD00003F313F0010FF4D005EB4613D3F80035ED
:101DE00013F4004FE9D0F1B22046FFF74AFCE8E7D0
:101DF00023684FF000725A6164E790F8F832012BC3
:101E00000BD010B50446012380F8F832006804F0C6
:101E100028F9002084F8F80210BD02207047000065
:101E2000002857D010B5044690F84130002B41D01F
:101E3000242384F841302268136823F001031360DF
:101E40006368226823F0706313612268936823F447
:101E500000439360E368012B31D0A368226843F408
:101E600004439360E368022B2FD0226851681A4B19
:101E70000B4353602268D36823F40043D360236983
:101E800062691343A169226843EA0123D360E369CD
:101E9000216A22680B4313602268136843F0010330
:101EA000136000206064202384F84130206384F8AC
:101EB000420010BD80F8403007F0AAF8B8E7A368E8
:101EC000226843F400439360CCE723684FF4006238
:101ED0005A60CAE7012070470080000290F8413044
:101EE000DBB2202B24D190F84030012B22D00123EB
:101EF00080F84030242380F841300268136823F0D2
:101F0000010313600268136823F4805313600268AE
:101F10001368194311600268136843F001031360EA
:101F2000202380F84130002380F840301846704765
:101F3000022070470220704790F84130DBB2202B1E
:101F400022D190F84030012B20D0012380F840307E
:101F5000242380F841300268136823F001031360E2
:101F60000268136823F4706343EA01211160026878
:101F7000136843F001031360202380F841300023ED
:101F800080F84030184670470220704702207047A2
:101F9000F0B54D680468E368C3F30B431D444FEA92
:101FA000C21C04EBC214D4F8883003F47043C4F8A4
:101FB00088300B680468E668C6F30B463344013387
:101FC00004EBC21443EA0543C4F88830CD680468C2
:101FD000E368C3F30A031D4404EBC21EDEF88C3031
:101FE00003F47043CEF88C308B680468E668C6F35F
:101FF0000A0E7344013304EBC21443EA0543C4F8E8
:102000008C30036803EBC213D3F8944024F0070428
:10201000C3F89440036803EBC2130C69C3F89440FF
:1020200091F8317091F832608D69046804EBC21444
:1020300004F1840ED4F89C300024CEF8184091F8B6
:10204000303043EA072343EA0643066806EBC21E24
:1020500043EA0563CEF89C300EF1840E036803EB6F
:10206000C213D3F8985025F0FF05C3F898500368C1
:1020700003EBC2134D69C3F89850036803EBC21316
:10208000D3F8A0602E4D3540C3F8A0500D6A036808
:1020900003EBC213CE693543C3F8A050036803EBCA
:1020A000C213D3F8AC50C3F8AC40036803EBC212C0
:1020B0004B6AC2F8AC300B696BB1012B39D0022BE3
:1020C00018BF042B37D0032B37D0072B01D00125A5
:1020D00002E0022500E0042502686244D2F8B04024
:1020E00004F0E024C2F8B0408A6A05FB02F44B68B1
:1020F0000A689B1A05FB03F303330268624443EA50
:102100000443C2F8B03003686344D3F8B4400D4AC6
:102110002240C3F8B42003686344CA6AC3F8B420F9
:1021200003689C44DCF8843043F00103CCF884302D
:10213000F0BD0325D0E70225CEE70225CCE700BF9E
:10214000F8F8FFFF00F8FFFF002872D038B504460A
:1021500090F8A130002B67D0022384F8A1302268C8
:10216000936923F07043936121688A696368A0686A
:102170000343E06803432069034313438B612168F1
:102180008A682D4B1A408A6020688268A169656957
:1021900041EA05410A4382602168CA681A40CA6060
:1021A0002068C268216AE56941EA05410A43C260C4
:1021B00021680A691A400A6120680269A16A656A91
:1021C00041EA05410A43026121684A6913404B61B3
:1021D000E06A21684B69226B42EA004213434B617B
:1021E00094F8350094F836301B042168CA6A02F06E
:1021F0007F42CA622168CA6A43EA002394F8340025
:1022000003431343CB622268536B43F006035363CB
:102210002268936943F0010393610020C4F8A4008D
:10222000012384F8A13038BD80F8A03006F050FFBB
:1022300092E70120704700BF00F800F07047704738
:10224000704770B5044603689D6B5E6B15F0040F14
:1022500002D016F0040F12D115F0020F02D016F0C2
:10226000020F21D115F0010F02D016F0010F32D16B
:1022700015F0080F02D016F0080F3DD170BD5A6B53
:1022800022F004025A6303680422DA63D0F8A4300F
:1022900043F00103C0F8A43080F8A120002380F8A7
:1022A000A030FFF7CBFFD7E72268536B23F0020380
:1022B000536323680222DA63D4F8A4301343C4F8CA
:1022C000A430042384F8A130002384F8A0302046F1
:1022D000FFF7B4FFC6E72268536B23F00103536393
:1022E00022680123D36384F8A130002384F8A0304E
:1022F0002046FFF7A4FFBBE72268536B23F00803D7
:10230000536323680822DA63012384F8A130002391
:1023100084F8A0302046FFF793FFAFE7F8B590F8B8
:10232000A030012B2CD004460D461646012780F81C
:10233000A070022380F8A1304FF0340C0CFB020C8B
:102340000CF1380C8E46BEE80F00ACE80F00BEE87A
:102350000F00ACE80F00BEE80F00ACE80F00DEF89D
:102360000030CCF80030324629462046FFF710FEF8
:1023700023685F6284F8A170002084F8A000F8BD93
:102380000220FCE7024A136843F48073136070472D
:102390000070004010B582B01B4B1A6C42F08052A6
:1023A0001A641B6C03F080530193019B174A136856
:1023B00043F480331360FEF7C5F80446134B5B68A3
:1023C00013F4803F08D1FEF7BDF8001BB0F57A7F0B
:1023D000F4D9032002B010BD0C4A136843F4003353
:1023E0001360FEF7AFF80446084B5B6813F4003F38
:1023F00007D1FEF7A7F8001BB0F57A7FF4D90320C8
:10240000E8E70020E6E700BF003802400070004027
:102410002DE9F84305460F4616469946DDF820801B
:102420002C68A4683C4214BF4FF0010C4FF0000C24
:10243000B44514D0B8F1FF3FF2D0FEF783F8A0EB1B
:102440000900404502D8B8F1000FE9D1042385F80E
:1024500041306B6C43F001036B64012000E000200D
:10246000BDE8F8838164704770B582B00446FEF71A
:1024700069F8002C4AD0064694F84130002B3AD037
:1024800025682A6822F4F852A168013942EA01223B
:102490002A60A36C00933346002220212046FFF7D8
:1024A000B7FF18BB21680B68194A1A406568E368D2
:1024B00043EA0563E5692B43256A2B4313430B600D
:1024C00021684A68134B13402569626942EA054254
:1024D000A5692A4313434B602268136843F0010344
:1024E000136000236364012384F84130002384F8DF
:1024F000403002B070BD84F84030204606F07AFECD
:1025000041F288312046FFF7ADFFB9E70120F0E73F
:102510002FFFFF00FEF8E0FF002800F0FF8170B5FC
:1025200082B00446036813F0010F29D0954B9B68D5
:1025300003F00C03042B1AD0924B9B6803F00C039E
:10254000082B0FD06368B3F5803F40D0002B54D1E7
:102550008C4B1A6822F480321A601A6822F48022A6
:102560001A6039E0874B5B6813F4800FEAD0854B23
:102570001B6813F4003F03D06368002B00F0D08188
:10258000236813F0020F74D07E4B9B6813F00C0F7E
:102590005ED07C4B9B6803F00C03082B53D0E368A0
:1025A000002B00F08980774A136843F00103136021
:1025B000FDF7C8FF0546734B1B6813F0020F72D17D
:1025C000FDF7C0FF401B0228F5D90320ADE16D4A9D
:1025D000136843F48033136063682BB3FDF7B2FFD5
:1025E0000546684B1B6813F4003FC9D1FDF7AAFFED
:1025F000401B6428F5D9032097E1B3F5A02F09D03B
:10260000604B1A6822F480321A601A6822F4802221
:102610001A60E1E75B4B1A6842F480221A601A687C
:1026200042F480321A60D7E7FDF78CFF0546554B20
:102630001B6813F4003FA3D0FDF784FF401B642800
:10264000F5D9032071E14F4B5B6813F4800FA6D1DD
:102650004C4B1B6813F0020F03D0E368012B40F0D2
:102660006181484A136823F0F803216943EAC103F2
:102670001360236813F0080F46D0636983B3414A9F
:10268000536F43F001035367FDF75CFF05463D4B75
:102690005B6F13F0020F37D1FDF754FF401B022888
:1026A000F5D9032041E1374A136823F0F803216983
:1026B00043EAC1031360DCE7324A136823F00103E5
:1026C0001360FDF73FFF05462E4B1B6813F0020F0A
:1026D000CFD0FDF737FF401B0228F5D9032024E1B6
:1026E000284A536F23F001035367FDF72BFF05467C
:1026F000244B5B6F13F0020F06D0FDF723FF401B46
:102700000228F5D9032010E1236813F0040F7DD0CF
:102710001C4B1B6C13F0805F1ED11A4B1A6C42F0DD
:1027200080521A641B6C03F080530193019B0125B6
:10273000154B1B6813F4807F10D0A368012B25D0A4
:10274000002B3BD10F4B1A6F22F001021A671A6F50
:1027500022F004021A671EE00025E9E70A4A13681E
:1027600043F480731360FDF7EDFE0646064B1B68CD
:1027700013F4807FE1D1FDF7E5FE801B6428F5D9D5
:102780000320D2E000380240007000406E4A136F10
:1027900043F001031367A36833B3FDF7D3FE064686
:1027A000694B1B6F13F0020F2FD1FDF7CBFE801B7F
:1027B00041F288339842F3D90320B6E0052B09D0C3
:1027C000614B1A6F22F001021A671A6F22F004029D
:1027D0001A67E0E75C4B1A6F42F004021A671A6F3F
:1027E00042F001021A67D6E7FDF7ACFE0646564BEB
:1027F0001B6F13F0020F08D0FDF7A4FE801B41F2FF
:1028000088339842F3D903208FE0FDB9A369002BE8
:1028100000F08A804C4A926802F00C02082A58D0D4
:10282000022B19D0484A136823F080731360FDF718
:1028300089FE0446444B1B6813F0007F47D0FDF728
:1028400081FE001B0228F5D903206EE03E4A136C7E
:1028500023F080531364D9E73B4A136823F0807355
:102860001360FDF76FFE0546374B1B6813F0007FC2
:1028700006D0FDF767FE401B0228F5D9032054E07F
:10288000E369226A1343626A43EA8213A26A520826
:10289000013A43EA0243E26A43EA026343F0005327
:1028A000294A5360136843F080731360FDF74AFEB2
:1028B0000446254B1B6813F0007F06D1FDF742FE4E
:1028C000001B0228F5D903202FE000202DE0002076
:1028D0002BE01D4A5268012B29D002F48003E169E4
:1028E0008B4226D102F03F03216A8B4223D1616AD9
:1028F00047F6C0731340B3EB811F1ED102F4403181
:10290000A36A5B08013BB1EB034F18D102F0706280
:10291000E36AB2EB036F14D1002006E00120704798
:10292000012002E0012000E0002002B070BD012083
:10293000FBE70120F9E70120F7E70120F5E7012097
:10294000F3E70120F1E700BF0038024008B5254B4E
:102950009B6803F00C03042B3FD0082B3FD1214B85
:102960005A6802F03F025B6813F4800F12D01D4BCF
:102970005968C1F388111C480023A1FB0001FDF731
:1029800047FC184B5B68C3F3014301335B00B0FBAA
:10299000F3F025E0134B5968C1F3881C4FEA4C1142
:1029A000B1EB0C006EEB0E0E4FEA8E1343EA906310
:1029B0008101091A63EB0E03DB0043EA5173C9007E
:1029C00011EB0C0C43F10003990200234FEA8C2019
:1029D00041EA9C51FDF71CFCD3E7034800E00348A3
:1029E00008BD00BF0038024040787D010024F4009B
:1029F000002800F0A08070B50D460446524B1B68BD
:102A000003F00F038B420BD24F4A136823F00F03DE
:102A10000B431360136803F00F038B4240F08D806B
:102A2000236813F0020F17D013F0040F04D0474AA5
:102A3000936843F4E0539360236813F0080F04D0C5
:102A4000424A936843F460439360404A936823F09A
:102A5000F003A1680B439360236813F0010F31D09A
:102A60006368012B20D0022B25D0384A126812F05F
:102A7000020F64D035498A6822F0030213438B6049
:102A8000FDF760FD0646314B9B6803F00C0362685E
:102A9000B3EB820F16D0FDF755FD801B41F2883352
:102AA0009842F0D9032045E0284A126812F4003F0A
:102AB000E0D101203EE0254A126812F0007FD9D112
:102AC000012037E0204B1B6803F00F03AB420AD90B
:102AD0001D4A136823F00F032B431360136803F0A0
:102AE0000F03AB422DD1236813F0040F06D0174A11
:102AF000936823F4E053E1680B439360236813F079
:102B0000080F07D0114A936823F46043216943EA10
:102B1000C1039360FFF71AFF0C4B9B68C3F30313C9
:102B20000B4AD35CD8400B4B18600B4B186806F06F
:102B300073FE002070BD012070470120FAE70120DC
:102B4000F8E70120F6E700BF003C024000380240F1
:102B5000749A00081000002004000020014B18683F
:102B6000704700BF1000002008B5FFF7F7FF044BC7
:102B70009B68C3F38223034AD35CD84008BD00BFDF
:102B800000380240849A000808B5FFF7E7FF044BBD
:102B90009B68C3F34233034AD35CD84008BD00BFEF
:102BA00000380240849A00080F2303600B4B9A6898
:102BB00002F0030242609A6802F0F00282609A68B2
:102BC00002F4E052C2609B68DB0803F4E053036147
:102BD000034B1B6803F00F030B6070470038024083
:102BE000003C0240F0B583B00446066816F00106CA
:102BF0000DD0A74B9A6822F400029A609A68416B44
:102C00000A439A60436B002B00F039810026256847
:102C100015F4002511D09E4AD2F88C3023F44013CD
:102C2000E16B0B43C2F88C30E36BB3F5801F00F00F
:102C30002881002B00F027810025236813F4801FD2
:102C40000FD0934AD2F88C3023F44003216C0B430D
:102C5000C2F88C30236CB3F5800F00F0168103B9F5
:102C60000125236813F0807F00D0012613F0200F88
:102C700040F01081236813F0100F0CD0844BD3F870
:102C80008C2022F08072C3F88C20D3F88C20A16BAA
:102C90000A43C3F88C20236813F4804F08D07C4A81
:102CA000D2F8903023F44033616E0B43C2F8903079
:102CB000236813F4004F08D0754AD2F8903023F4FB
:102CC0004023A16E0B43C2F89030236813F4803F79
:102CD00008D06F4AD2F8903023F44013E16E0B43D2
:102CE000C2F89030236813F4003F08D0684AD2F845
:102CF000903023F44003216F0B43C2F890302368D7
:102D000013F0400F08D0624AD2F8903023F003034A
:102D1000616C0B43C2F89030236813F0800F08D029
:102D20005B4AD2F8903023F00C03A16C0B43C2F83D
:102D30009030236813F4807F08D0554AD2F8903041
:102D400023F03003E16C0B43C2F89030236813F496
:102D5000007F08D04E4AD2F8903023F0C003216D96
:102D60000B43C2F89030236813F4806F08D0484AB0
:102D7000D2F8903023F44073616D0B43C2F8903069
:102D8000236813F4006F08D0414AD2F8903023F43E
:102D90004063A16D0B43C2F89030236813F4805F49
:102DA00008D03B4AD2F8903023F44053E16D0B43F6
:102DB000C2F89030236813F4005F08D0344AD2F888
:102DC000903023F44043216E0B43C2F890302368C7
:102DD00013F4800F08D02E4AD2F8903023F080638D
:102DE000A16F0B43C2F89030236813F4001F0DD07D
:102DF000274AD2F8903023F00063E16F0B43C2F80A
:102E00009030E36FB3F1006F00F0AA80236813F0F5
:102E1000080F00D0012513F4802F08D01C4AD2F8E7
:102E2000903023F04073616F0B43C2F890302368F9
:102E300013F4000F09D0164AD2F8903023F08053D3
:102E4000D4F880100B43C2F8903026B9236813F0F1
:102E5000007F00F005810E4A136823F08063136041
:102E6000FDF770FB06460A4B1B6813F0006F79D024
:102E7000FDF768FB801B6428F5D90320F3E00126E9
:102E8000C5E60126D5E60125D7E60126E7E600BF1F
:102E9000003802407F4B1A6C42F080521A641B6C5F
:102EA00003F080530193019B7B4A136843F48073C2
:102EB0001360FDF747FB0746774B1B6813F4807FD1
:102EC00006D1FDF73FFBC01B6428F5D90320CAE0FB
:102ED000704B1B6F13F4407315D0226B02F44072D9
:102EE0009A4210D06B4B1A6F22F44072196F41F462
:102EF00080311967196F21F4803119671A671B6FC8
:102F000013F0010F12D1236B03F44072B2F5407F2E
:102F10001DD0604A936823F4F81393605D490B6FEA
:102F2000226BC2F30B0213430B67A3E6FDF70AFB08
:102F30000746584B1B6F13F0020FE4D1FDF702FB5D
:102F4000C01B41F288339842F3D903208BE05148EB
:102F5000826822F4F812514919400A438260DDE781
:102F6000012553E7236813F0010F13D0636B8BB96E
:102F7000484AD2F88430D2F88410606803F44033B1
:102F800043EA801301F070610B43A16843EA0173C7
:102F9000C2F88430236813F4002F03D0E26BB2F53B
:102FA000801F06D013F4801F1ED0236CB3F5800F52
:102FB0001AD1384AD2F88430D2F88410606803F409
:102FC000403343EA8013E06843EA006301F0E041E4
:102FD0000B43C2F88430D2F88C3023F01F03616AAF
:102FE00001390B43C2F88C30236813F0807F11D075
:102FF000284AD2F88400D2F88410666823691B043A
:1030000043EA861300F07060034301F0E0410B4394
:10301000C2F88430236813F0007F0DD06268236902
:103020001B0443EA8213E26843EA0263A26843EAAC
:103030000273184AC2F88430164A136843F080635A
:103040001360FDF77FFA0646124B1B6813F0006F02
:1030500006D1FDF777FA801B6428F5D9032002E03A
:10306000012D02D0002003B0F0BD0A4A136823F0FE
:1030700080531360FDF766FA0546064B1B6813F094
:10308000005F0DD0FDF75EFA401B6428F5D90320E0
:10309000E9E700BF0038024000700040FFFCFF0F6E
:1030A000236813F4002F01D0E26B22B113F4801FC8
:1030B0001DD0236CDBB9354AD2F88830D2F888109D
:1030C000606903F4403343EA8013A06943EA006374
:1030D00001F0E0410B43C2F88830D2F88C3023F481
:1030E000F853A16A013943EA0123C2F88C302368FE
:1030F00013F4001F03D0E36FB3F1006F31D02368E6
:1031000013F0080F19D0214AD2F88810D2F888306D
:10311000606903F4403343EA801301F070610B43AC
:10312000E16943EA0173C2F88830D2F88C3023F4A5
:103130004033E16A0B43C2F88C30144A136843F001
:1031400080531360FDF7FEF90446104B1B6813F023
:10315000005F19D1FDF7F6F9001B6428F5D90320AB
:1031600081E70A4AD2F88800D2F888106569236A94
:103170001B0443EA851300F07060034301F0E04153
:103180000B43C2F88830BAE700206CE700380240F1
:103190000246B0F5002F04D00020B2F5801F62D0A7
:1031A0007047614BD3F88C3003F44013B3F5801FA4
:1031B0002ED0B3F5001F54D00BB10020EDE75A4BD1
:1031C0005B6813F4800F1BD1574B5B6803F03F0C17
:1031D000564BB3FBFCFC5449D1F88800C0F30360A4
:1031E000D1F88830C3F388130CFB03F3B3FBF0F37F
:1031F000D1F88C00C0F304200130B3FBF0F0CCE731
:10320000494B5B6803F03F0C494BB3FBFCFCE2E726
:10321000454B5B6813F4800F1BD1434B5B6803F095
:103220003F0C424BB3FBFCFC3F49D1F88400C0F398
:103230000360D1F88430C3F388130CFB03F3B3FBB2
:10324000F0F3D1F88C0000F01F000130B3FBF0F078
:10325000A3E7354B5B6803F03F0C354BB3FBFCFC3D
:10326000E2E7344899E7304BD3F88C3003F440035D
:10327000B3F5800F2DD0B3F5000F53D0002B8FD1B5
:10328000294B5B6813F4800F1BD1274B596801F061
:103290003F012648B0FBF1F1234BD3F88820C2F35D
:1032A0000362D3F88800C0F3881001FB00F0B0FB84
:1032B000F2F0D3F88C30C3F304230133B0FBF3F006
:1032C0007047194B596801F03F011948B0FBF1F103
:1032D000E2E7154B5B6813F4800F1BD1124B596862
:1032E00001F03F011148B0FBF1F10F4BD3F88420FE
:1032F000C2F30362D3F88400C0F3881001FB00F02E
:10330000B0FBF2F0D3F88C3003F01F030133B0FBB5
:10331000F3F07047044B596801F03F010448B0FBDB
:10332000F1F1E2E703483BE7003802400024F400F3
:1033300040787D010080BB0038B504460268D36840
:1033400023F0A003D360FDF7FDF805462368DB6892
:1033500013F0200F07D1FDF7F5F8401BB0F57A7F89
:10336000F4D9032000E0002038BD38B50368DA68DE
:1033700012F0400F01D0002038BD04464FF0FF325C
:10338000DA60FDF7DFF805462368DB6813F0400FCD
:1033900007D1FDF7D7F8431BB3F57A7FF4D90320A3
:1033A000EAE70020E8E7000038B500285AD00446D4
:1033B000437F002B3FD0022363772368CA225A62DF
:1033C000236853225A622046FFF7CFFF05460028A4
:1033D00035D122689168244B0B40936021688A683C
:1033E0006368206903436069034313438B60236868
:1033F000E2681A6122681369A16843EA0143136114
:103400002268D36823F08003D36023689B6813F09D
:10341000200F1BD02268D36C23F00803D3642268EA
:10342000D36CA1690B43D3642368FF225A62012342
:103430006377284638BD037705F04EFFBBE7236866
:10344000FF225A62042363770125F2E72046FFF743
:1034500073FF0028DED02368FF225A6204236377BB
:103460000125E6E70125E4E7BFFF8FFF002302E027
:1034700001330A38C0B20928FAD81B01DBB218435D
:1034800070470000F8B5037F012B76D004460E4646
:103490000123037702234377002A45D103689B6801
:1034A00013F0400F01D100230B733078FFF7DEFFDC
:1034B00005047078FFF7DAFF45EA0025B078FFF7DA
:1034C000D5FF0543307B45EA00452368CA225A628E
:1034D000236853225A622046FFF747FF0746002819
:1034E00034D12268264B2B4013602268936823F462
:1034F0008023936021688B683269706902431343AB
:103500008B602268D36823F08003D36023689B68B4
:1035100013F0200F23D02368FF225A620123637720
:10352000002323773846F8BD03689B6813F0400FEB
:1035300001D100230B73337875782D0245EA0345DA
:10354000B0780543307B45EA0045BEE72368FF229B
:103550005A6204236377002323770127E2E720469A
:10356000FFF7EAFE0028D6D02368FF225A62042320
:103570006377002323770127D4E70227D2E700BF30
:103580007F7F7F0070B5037F012B64D004460E4619
:1035900001230377022343773AB94B7813F0100FD6
:1035A00003D003F0EF030A334B70002A31D1F078D7
:1035B000FFF75CFF05047078FFF758FF45EA002528
:1035C000B078FFF753FF0543307845EA403523686C
:1035D000CA225A62236853225A622046FFF7C5FE68
:1035E000064608BB22681D4B2B4053602268D368F7
:1035F00023F08003D36023689B6813F0200F1CD056
:103600002368FF225A620123637700232377304621
:1036100070BDF37875782D0245EA0345B07805430F
:10362000307845EA4035D2E72368FF225A62042306
:103630006377002323770126E9E72046FFF77CFE26
:103640000028DDD02368FF225A6204236377002319
:1036500023770126DBE70226D9E700BF3FFFFF0003
:10366000F8B5037F012B00F0A98004460D46012325
:10367000037702234377002A4DD103689B6813F038
:10368000400F01D100230B732E6A2878FFF7EEFE5E
:1036900007046878FFF7EAFE47EA0027A878FFF7F3
:1036A000E5FE0743287B47EA004795F82400FFF72B
:1036B000DDFE47EA00673E43AB691E436F68EB6976
:1036C0001F432368CA225A62236853225A62AB6A94
:1036D000B3F5807F39D02268936823F40073936038
:1036E0002268936823F400539360FCF72BFF054690
:1036F0002368DA6812F0020F50D1FCF723FF401B59
:10370000B0F57A7FF4D92368FF225A6203206077EC
:103710000023237751E003689B6813F0400F01D129
:1037200000230B732E6A2A786B781B0243EA02434C
:10373000AA7813432A7B43EA024395F8242043EAFC
:1037400002631E43AB691E43B8E72268936823F403
:10375000807393602268936823F480539360FCF72E
:10376000F1FE05462368DA6812F0010F0DD1FCF76F
:10377000E9FE401BB0F57A7FF4D92368FF225A6234
:10378000032060770023237717E0DE6123685F64FE
:103790002268936843F48073936007E01E62236895
:1037A0009F642268936843F4007393602368FF2248
:1037B0005A620123637700202077F8BD0220FCE7DE
:1037C000037F012B2BD030B44FF0010C80F81CC0CC
:1037D000022343770468A568A3F60B032B40194323
:1037E000CA236362036853245C620468E36C23F0B9
:1037F0000603E3640468E36C1A43E26403689960B7
:103800000268936843F4006393600368FF225A627E
:1038100080F81DC000230377184630BC7047022093
:10382000704700000E4B1B680E4AA2FB03231B0BC4
:103830009B0001680A6822F480320A601A46013B44
:1038400032B10268126812F4803FF7D1002070474D
:10385000D0F8803043F04003C0F880300320704738
:10386000100000201BECCB95002800F0F38038B549
:10387000044690F87D30002B00F0BA80022384F8D3
:103880007D302046FFF7CEFFE368012B00F0B580C6
:10389000022B40F0B4802022A368022B00F0B980F4
:1038A000032B00F0B180012B00F0AB8000252368D2
:1038B00069486A498B4218BF834240F0AD80684B2B
:1038C000C3F80028E36943B323686349634A93421A
:1038D00018BF8B4200F0A480002023686149624A2F
:1038E000934218BF8B4200F0A08000EB80004000A4
:1038F000E3695B02B0FBF3F05C4BA3FB0023DB0846
:10390000236203EB8302A0EB4200082801D90133B4
:103910002362236B042B00F08D806368022B18BF99
:10392000002B40F08E80E36B012B00F087804FF47A
:10393000007C21680B684E4A1A400A6022681168B0
:103940006368206B0343606B0343A06B034343EA4C
:103950000C032B43606A03432069034360690343FC
:10396000206A43EA00530B43136022685168414BBD
:103970000B40536021684A68A369A06A0343E06A68
:10398000034313434B60226891683B4B0B409360A9
:1039900020688268236C013B216D0B43A16C0B43B3
:1039A000E16C0B43616C013943EA012313438360EB
:1039B0002268D36823F47D6323F00F031B041B0CE0
:1039C000D3602068C268636DA16D0B43216E43EA2A
:1039D0000143E16D013943EA01231343C360002031
:1039E000C4F88000012384F87D3084F87C0038BD61
:1039F00080F87C3005F0BAFE40E710224CE7002248
:103A00004AE74FF4806552E742F001024FF4006547
:103A10004DE74FF400654AE7114BC3F8002C51E71E
:103A20004FF40020FFF7B4FB57E74FF48010FFF787
:103A3000AFFB5AE7236A5B0823626EE74FF0000C86
:103A400077E7E36B012B02D04FF0000C71E74FF4E6
:103A5000007C6EE701207047045801402458014063
:103A600000500140045C0140245C0140CDCCCCCC32
:103A700010C005FFF01FFFFF0080F8FF836B1A687E
:103A8000D36B43F48073D3637047000070B582B08A
:103A9000044600230193006802F01AF9054610B1AC
:103AA000284602B070BD206802F025F938B901231C
:103AB000A364A36C012B0BD02E46284614E00023F0
:103AC000A364206802F004F90028F2D00546E7E775
:103AD0000021206802F026F90028EDD04FF0805533
:103AE000DEE7019B01330193019A4FF6FE739A4280
:103AF00013D896B90021206802F014F9E0B91249F0
:103B0000206802F027F90646C0B90021206801F0BC
:103B100026FFC30FE5D01E46E3E7019A4FF6FE737A
:103B20009A420ED810F0804302D001236364B7E7B5
:103B3000002262641D46B3E70546B1E74FF08055A9
:103B4000AEE74FF08075ABE7000010C1F0B589B06B
:103B500004460F46FCF7F6FC06460023009301934B
:103B60000821206802F00AF8054610B1284609B07D
:103B7000F0BD216D0904206802F0D4F80546002844
:103B8000F4D14FF0FF3302930823039330230493BF
:103B900002230593002306930123079302A92068BB
:103BA00001F0DAFF206802F007F9054658B1DDE7B9
:103BB00001F0B0FE4DF825000135FCF7C3FC831B76
:103BC000B3F1FF3F3FD02068436B13F02A0F07D1BA
:103BD000436B13F4001FEBD1436B13F4005FECD184
:103BE000436B13F0080F25D1436B13F0020F24D160
:103BF000456B15F0200523D140F23A538363019AB7
:103C0000130203F47F0343EA0263110A01F47F41C4
:103C10000B4343EA12633B60009A130203F47F03F1
:103C200043EA0263110A01F47F410B4343EA126342
:103C30007B609BE70825856398E70225856395E708
:103C40002025856392E74FF000458FE710B582B0DD
:103C50000446002100910191006801F080FE10F0FF
:103C6000007F13D169462046FFF770FF80B9019BA2
:103C700013F4802F0ED0216D0904206802F052F851
:103C800030B90221206802F07FF801E04FF40060B3
:103C900002B010BD4FF08060FAE710B582B0044664
:103CA000002100910191006801F059FE10F0007FA1
:103CB00013D169462046FFF749FF80B9019B13F4F1
:103CC000803F0ED0216D0904206802F02BF830B936
:103CD0000021206802F058F801E04FF4006002B0C3
:103CE00010BD4FF08060FAE770B581B104460E4612
:103CF000016D0904006802F0B9F8054608B12846CC
:103D000070BD0021206801F02AFE3060F7E74FF017
:103D10000065F4E72DE9F04387B0044691B11646FB
:103D20001F460A4690F83450EDB2012D7FD1002392
:103D30008363F019E36D98420AD9A36B43F00073D3
:103D4000A36375E0836B43F00063836301256FE039
:103D5000032384F8343021680023CB622068C16BD0
:103D600041F49571C163216C3448C863216C3448B7
:103D7000C864216C0B65216C8B60206C01680B683A
:103D800023F0C003806803430B6021684FEA472992
:103D90004FEA99038031206CFCF7D2FE8046002860
:103DA0002ED12268D36A43F00803D362636C012BDF
:103DB00000D076024FF0FF330093CDF804909023AB
:103DC000029302230393002304930123059369467E
:103DD000206801F0C1FE012F22D9822323633146DE
:103DE000206801F0FBFE38B32368164A9A63A36B80
:103DF0001843A063012384F834300023236317E0C1
:103E00002268D36B23F49573D36323680D4A9A63B6
:103E1000A36B43F08043A363012384F8343007E0AD
:103E2000812323633146206801F0C0FEDBE70225D1
:103E3000284607B0BDE8F0834546F9E77B3F000818
:103E400061440008FF054000F0B587B00446002932
:103E500039D01E460F4690F83450EDB2012D40F097
:103E60008180002383639319C16D8B4231D8032372
:103E700080F8343003680021D9620068C36B43F0D6
:103E80001A03C363E36B3948D863E36B3848D864DB
:103E9000E36B1965636C012B00D05202012E1DD912
:103EA000A02323631146206801F0C8FEE8B123680F
:103EB000304A9A63A36B1843A063012384F834301B
:103EC000002323634FE0836B43F00063836301258A
:103ED00049E0836B43F00073836344E090232363E2
:103EE0001146206801F092FEE0E72268D36A43F0B1
:103EF0000803D362E36B40229A60E16B0A6813689F
:103F000023F0C00389680B43136022687602B3086C
:103F100080323946E06BFCF713FE074688B1226811
:103F2000D36B23F01A03D3632368124A9A63A36BFB
:103F300043F08043A363012384F8343000232363D8
:103F400011E04FF0FF33009301969023029300237A
:103F500003930493012305936946206801F0FCFD57
:103F60003D4600E00225284607B0F0BD7D3A000836
:103F700061440008FF054000704710B5846B236B57
:103F8000822B11D02268D36A23F00803D3622368FE
:103F900040F23A529A63012384F8343000232363B9
:103FA000204602F0D5F810BD206801F05FFE034600
:103FB0000028E7D0A26B1343A3632046FFF7DCFF82
:103FC000E0E70000436E9B0F0B70436EC3F3836307
:103FD0004B7090F8673003F003038B7090F86630F5
:103FE000CB7090F865300B7190F864304B71836E34
:103FF0001B0DCB80B0F86A3003F00F030B72836E99
:10400000C3F3C0334B72836EC3F380338B72836E02
:10401000C3F34033CB72836EC3F300330B730023BF
:104020004B73436C002B40F08680826E40F6FC732D
:1040300003EA8203C26E43EA92730B61C36EC3F359
:10404000C2630B7590F86F3003F007034B75C36EB6
:10405000C3F342538B75C36EC3F38243CB75C36EF8
:10406000C3F3C2330B760B69013343650A7E02F05A
:1040700007020232934043650A7A02F00F0C0122D4
:1040800002FA0CF28265520A02FB03F3C3654FF495
:1040900000730366C36EC3F380334B76C36EC3F302
:1040A000C6138B76C36E03F07F03CB76036FDB0FF3
:1040B0000B77036FC3F341734B77036FC3F38263D3
:1040C0008B77036FC3F38353CB77036FC3F34053F3
:1040D00081F82030002381F82130B0F8722002F0FE
:1040E000010281F82220026FC2F3C03281F823203E
:1040F000026FC2F3803281F82420026FC2F3403293
:1041000081F82520026FC2F3003281F82620026F69
:10411000C2F3812281F82720026FC2F3012281F8C5
:104120002820026FC2F3460281F82920012281F87B
:104130002A2018467047012B11D1836E1B0403F40B
:104140007C13B0F86E2013430B610B6901339B02A3
:104150004365C3654FF40073836503669AE703689C
:10416000054A9A63836B43F080538363012380F88D
:1041700034301846704700BFFF05400070B590B05E
:1041800004460123ADF81230006801F0CEFB002890
:104190006CD0636C032B45D1636C032B5DD1636CD6
:1041A000032B1DD0BDF8121021650904206801F011
:1041B00030FE054600285BD10021206801F0CFFBCE
:1041C00060660421206801F0CAFBA066082120680F
:1041D00001F0C5FBE0660C21206801F0C0FB206700
:1041E0000421206801F0BBFB000DE06405A9204616
:1041F000FFF7E8FE00283ED1226D1204002320685C
:1042000001F04EFD054698BB234653F8106B93E82A
:1042100007008DE80700043494E80E00304601F0F2
:104220005FFB25E0206801F0DFFD054600BB0021B3
:10423000206801F094FB60670421206801F08FFB87
:10424000A0670821206801F08AFBE0670C21206844
:1042500001F085FBC4F880009EE70DF11201206893
:1042600001F0ECFD0546002899D001E04FF0806593
:10427000284610B070BD4FF08055F9E730B58BB0CF
:10428000044600230493059306930793089376232B
:1042900009930AAB13E907008DE8070004AB0ECBC6
:1042A000206801F01DFB18B1012528460BB030BD78
:1042B00005462268536823F480735360206801F038
:1042C0002CFB2268536843F4807353602046FFF749
:1042D000DDFB30B1012584F83450A36B0343A363A5
:1042E000E3E72046FFF74AFF30B1012584F8345058
:1042F000A36B0343A363D8E74FF40071206801F078
:104300003DFC0028D1D0236804499963A36B034383
:10431000A363012584F83450C7E700BFFF054000C0
:10432000A8B110B5044690F8343063B1032384F883
:1043300034302046FFF7A2FF58B9A0632063012361
:1043400084F8343010BD037704F0D6FFEEE7012087
:1043500070470120F6E7436C0B60836C4B60C36CC5
:104360008B60036DCB60436D0B61836D4B61C36DDF
:104370008B61036ECB6100207047000030B58BB0BD
:1043800004460D46032380F83430436C032B1CD0C5
:10439000B1F5805F08D0B1F5006F0AD079B1836BB9
:1043A00043F00063836314E0836B43F080538363C3
:1043B0000FE0FFF74BFCA36B0343A36309E0FFF798
:1043C0006CFCA36B0343A36303E0836B43F0805354
:1043D0008363A36BC3B12368174A9A63012584F8EA
:1043E00034504FF40071206801F0C8FB30B12368ED
:1043F00011499963A36B0343A3630125012384F847
:10440000343028460BB030BD63680493A36805932D
:10441000E3680693079563690893A36909930AAB58
:1044200013E907008DE8070004AB0ECB206801F00C
:1044300057FA0025D5E700BFFF05400010B582B050
:1044400004460023019301A9FFF74EFC10B1A36BB2
:104450000343A3630198C0F3432002B010BD0000E2
:1044600010B5846BFCF7A6FB02280AD0236C5A6DAA
:10447000E36B5B6D012B18BF012A03D02046FFF7C9
:104480007BFD10BD23680F4A9A632268D36B23F427
:104490009D73D363A36B43F08043A3632046FFF770
:1044A000CDFF0538012805D9012384F834300023D5
:1044B0002363E3E7206801F0D9FBA36B0343A36305
:1044C000F2E700BFFF054000E0B138B50D460446F5
:1044D00090F82C308BB1022384F82C30214651F80F
:1044E000040B01F0CDF862682946206801F002F95A
:1044F000012384F82C30002038BD80F82D3005F0E1
:1045000031F9E8E701207047002830D010B50446A3
:1045100090F8453033B3022384F84530226813689D
:1045200023F00303136021680B68124A1A40A36941
:1045300060680343A0680343E068034320690343C2
:1045400060690343E0690343206A0343606A0343ED
:10455000A06A034313430B600020A064012384F886
:10456000453010BD80F8443004F012FFD3E701203D
:10457000704700BF0784F8FF00286FD010B50446CD
:10458000436A33B94368B3F5827F05D00023C36122
:1045900002E00023036143610023A36294F85D30CD
:1045A000002B52D0022384F85D302268136823F078
:1045B00040031360E368B3F5E06F4CD90022B3F514
:1045C000706F18BFB3F5E06F01D00023A36263687A
:1045D00003F48273A16801F404410B43216901F0E3
:1045E00002010B43616901F001010B43A16901F470
:1045F00000710B43E16901F038010B43216A01F0BE
:1046000080010B43A16A01F4005120680B43036051
:10461000638B03F00403616A01F010010B43616BCB
:1046200001F008010B43E16801F470610B4321685C
:1046300013434B602268D36923F40063D3610020E5
:104640002066012384F85D3010BD84F85C3020467C
:1046500004F0CEFEA6E74FF48052B0E70120704789
:1046600070B4036A23F001030362036A4268856938
:10467000124C2C400D68254323F002048B68234321
:104680000F4C104EB04218BFA0420CBF01240024B2
:1046900005D123F00803CE68334323F004032CB183
:1046A00022F440724C6914438A6922434260856156
:1046B0004A684263036270BC704700BF8CFFFEFF14
:1046C000000001400004014070B4036A23F48073C9
:1046D0000362036A4268C569144C2C400E68264385
:1046E00023F400738C6843EA0423114C114DA84253
:1046F00018BFA0420CBF0124002406D123F400639C
:10470000CD6843EA052323F480633CB122F4405290
:104710004C6942EA04128C6942EA04124260C661A2
:104720004A68C263036270BC704700BF8CFFFEFF23
:10473000000001400004014070B4036A23F4805378
:104740000362036A4468C5690D4A2A400D6842EA5B
:10475000052223F400538D6843EA0533094E0A4DC0
:10476000A84218BFB04204D124F480444D6944EA01
:1047700085144460C2614A680264036270BC704779
:10478000FF8CFFFE000001400004014070B4036A8A
:1047900023F480330362036A4468426D0D4D154073
:1047A0000A682A4323F400338D6843EA05430A4E1E
:1047B0000A4DA84218BFB04204D124F480344D6998
:1047C00044EA0524446042654A688265036270BC1D
:1047D000704700BF8FFFFEFF000001400004014052
:1047E00070B4036A23F480130362036A4468456D5E
:1047F0000D4A2A400D6842EA052223F400138D6811
:1048000043EA0553094E0A4DA84218BFB04204D1ED
:1048100024F480244D6944EA8524446042654A6852
:10482000C265036270BC7047FF8FFFFE000001404D
:104830000004014010B4036A046A24F00104046215
:10484000846924F0F00C4CEA021223F00A030B43B3
:10485000826103625DF8044B704710B4046A24F06F
:10486000100404628469036A24F4704C4CEA023236
:1048700023F0A00343EA0113826103625DF8044B55
:104880007047836823F070030B4343F00703836092
:104890007047000090F83D30DBB2012B3AD1022383
:1048A00080F83D300268D36843F00103D3600368A9
:1048B0001A4AB3F1804F18BF93421DD0A2F57C4233
:1048C000934219D002F58062934215D002F58062BE
:1048D000934211D002F5784293420DD002F5705206
:1048E000934209D0A2F59432934205D01A6842F05F
:1048F00001021A60002070479968094A0A40062A96
:1049000018BFB2F5803F07D01A6842F001021A6062
:1049100000207047012070470020704700000140D0
:1049200007000100704770477047704710B5044694
:1049300003681A6912F0020F11D0DA6812F0020F40
:104940000DD06FF002021A610123037703689B699F
:1049500013F0030F79D0FFF7E6FF002323772368D6
:104960001A6912F0040F12D0DA6812F0040F0ED098
:104970006FF004021A610223237723689B6913F402
:10498000407F68D02046FFF7CEFF002323772368BF
:104990001A6912F0080F12D0DA6812F0080F0ED060
:1049A0006FF008021A61042323772368DB6913F090
:1049B000030F57D02046FFF7B6FF00232377236865
:1049C0001A6912F0100F12D0DA6812F0100F0ED020
:1049D0006FF010021A61082323772368DB6913F450
:1049E000407F46D02046FFF79EFF002323772368B1
:1049F0001A6912F0010F03D0DA6812F0010F3FD1EB
:104A000023681A6912F0800F03D0DA6812F0800F61
:104A10003DD123681A6912F4807F03D0DA6812F05E
:104A2000800F3BD123681A6912F0400F03D0DA6877
:104A300012F0400F39D123681A6912F0200F03D009
:104A4000DA6812F0200F37D110BDFFF76BFF204658
:104A5000FFF76AFF81E72046FFF764FF2046FFF774
:104A600063FF92E72046FFF75DFF2046FFF75CFFFC
:104A7000A3E72046FFF756FF2046FFF755FFB4E7B0
:104A80006FF001021A61204603F00CFBB8E76FF0EB
:104A900080021A61204600F0E0FABAE76FF48072F3
:104AA0001A61204600F0DAFABCE76FF040021A61A2
:104AB0002046FFF73AFFBEE76FF020021A6120465A
:104AC00000F0CAFAC0E7000030B503683B4A9042E4
:104AD00014BF4FF0000E4FF0010EB0F1804F14BF25
:104AE00072464EF00102AAB9354CA04214BF002410
:104AF0000124344DA8420DD064B904F1804404F57A
:104B00008234A04214BF0024012405F50065A842A8
:104B100000D01CB123F070034C682343002A33D12A
:104B2000274A904214BF00220122264CA0422BD0DB
:104B300052BB02F1804202F58232904214BF002241
:104B4000012204F50064A0421ED0EAB91E4A904238
:104B500014BF0022012204F59A34A04214D09AB95D
:104B60001A4A904214BF0022012204F50064A042B8
:104B70000AD04AB9164A904214BF00220122A4F575
:104B80009634A04200D022B123F4407CCB6843EAA3
:104B90000C0323F080034A69134303608A68C262EE
:104BA0000A6882620B4A904214BF73464EF00103BA
:104BB0000BB10B6903630123436130BD0000014069
:104BC000000800400004004000440140001800407C
:104BD000002000400004014060B310B5044690F886
:104BE0003D3013B3022384F83D30214651F8040BC5
:104BF000FFF76AFF012384F8483084F83E3084F8D8
:104C00003F3084F8403084F8413084F8423084F8F2
:104C1000433084F8443084F8453084F8463084F8D2
:104C2000473084F83D30002010BD80F83C3004F05F
:104C300027FCD7E70120704760B310B5044690F811
:104C40003D3013B3022384F83D30214651F8040B64
:104C5000FFF73AFF012384F8483084F83E3084F8A7
:104C60003F3084F8403084F8413084F8423084F892
:104C7000433084F8443084F8453084F8463084F872
:104C8000473084F83D30002010BD80F83C3004F0FF
:104C90004BFCD7E70120704770B4036A23F0100380
:104CA0000362036A42688569144C2C400D6844EA2B
:104CB000052523F020038C6843EA0413104C114EA1
:104CC000B04218BFA0420CBF0124002406D123F03B
:104CD0008003CE6843EA061323F040033CB122F47C
:104CE00040624C6942EA84028C6942EA8402426072
:104CF00085614A688263036270BC7047FF8CFFFE67
:104D0000000001400004014038B590F83C30012B10
:104D100000F08C8004460D46012380F83C30142AB4
:104D20001ED8DFE802F00B1D1D1D211D1D1D351DA8
:104D30001D1D481D1D1D5C1D1D1D6F000068FFF71A
:104D40008FFC2268936943F008039361226893699A
:104D500023F0040393612268936929690B439361EB
:104D6000002084F83C0038BD0068FFF795FF2268FA
:104D7000936943F4006393612268936923F4806329
:104D8000936122689369296943EA01239361E7E704
:104D90000068FFF799FC2268D36943F00803D361E8
:104DA0002268D36923F00403D3612268D369296997
:104DB0000B43D361D4E70068FFF7BEFC2268D369D8
:104DC00043F40063D3612268D36923F48063D36121
:104DD0002268D369296943EA0123D361C0E70068E7
:104DE000FFF7D4FC2268536D43F008035365226833
:104DF000536D23F0040353652268536D29690B43F7
:104E00005365ADE70068FFF7EBFC2268536D43F490
:104E1000006353652268536D23F4806353652268F1
:104E2000536D296943EA0123536599E702209AE704
:104E300010B4846824F47F4C42EA03220A4342EA15
:104E40000C0282605DF8044B7047000090F83C3023
:104E5000012B64D010B50446012380F83C300223B6
:104E600080F83D30026890682E4B034093600B68D9
:104E7000602B40D022D8402B47D00BD9502B0ED1DD
:104E8000CA6849682068FFF7D5FC50212068FFF701
:104E9000F8FC04E0202B0CD008D9302B09D00123DA
:104EA00084F83D30002084F83C0010BD0BB1102B7D
:104EB000F5D119462068FFF7E4FCF0E7702B0ED01F
:104EC000B3F5005FEBD1CB684A6889682068FFF7CB
:104ED000AFFF2268936843F480439360DFE7CB68B9
:104EE0004A6889682068FFF7A3FF2268936843F047
:104EF00077039360D3E7CA6849682068FFF7ADFC81
:104F000060212068FFF7BDFCC9E7CA6849682068CE
:104F1000FFF790FC40212068FFF7B3FCBFE70220B9
:104F2000704700BF8800FEFF90F83C30012B45D051
:104F300070B4012380F83C30022380F83D300368D0
:104F40005A689C681E4E1F4DAB4218BFB34203D136
:104F500022F470024D682A4322F070020D682A4341
:104F60005A600368164AB3F1804F18BF934217D0B6
:104F7000A2F57C42934213D002F5806293420FD097
:104F800002F5806293420BD002F57842934207D03B
:104F900002F57052934203D0A2F59432934204D1A9
:104FA00024F080048A6814439C60012380F83D301B
:104FB000002380F83C30184670BC704702207047D0
:104FC000000001400004014090F83C30012B3CD02F
:104FD00030B4012380F83C30CB6823F440738A68F6
:104FE000134323F480634A68134323F400630A687D
:104FF000134323F480530A69134323F400534A698B
:10500000134323F480438A6A134323F470238A6989
:1050100043EA024302680E4D0E4CA24218BFAA4258
:105020000CD123F470034C6A43EA045323F08073D9
:10503000CC69234323F00073096A0B4353640023B4
:1050400080F83C30184630BC70470220704700BFE3
:1050500000000140000401407047704770470000A5
:1050600010B5044683680269134342691343C26959
:10507000134301680868934A024013430B60226897
:10508000536823F44053E1680B435360A269236AD9
:105090001A4321688B6823F4306313438B602368C1
:1050A000894A934219D0894A934229D0884A934227
:1050B0003ED0884A934262D0874A934271D0874A51
:1050C000934200F08380864A934200F09480854AA0
:1050D000934200F0A58010233AE0834BD3F8903040
:1050E00003F00303032B09D8DFE803F00204AE0644
:1050F00001232DE004232BE0082329E0102327E0DF
:10510000794BD3F8903003F00C030C2B0ED8DFE86A
:1051100003F0070D0D0D090D0D0D9D0D0D0D0B006F
:10512000002315E0042313E0082311E010230FE00F
:105130006D4BD3F8903003F03003202B00F08880C3
:1051400019D8002B00F08680102B40F085800423B6
:10515000E069B0F5004F00F0AB80082B00F20C8145
:10516000DFE813F0E800FB00E6000A01FE000A0198
:105170000A010A010101302B70D10823E8E75A4BDC
:10518000D3F8903003F0C003802B69D005D8002BF2
:1051900068D0402B68D10423DAE7C02B66D10823FE
:1051A000D6E7514BD3F8903003F44073B3F5007F4A
:1051B0005ED006D8002B5DD0B3F5807F5CD1042390
:1051C000C6E7B3F5407F59D10823C1E7464BD3F872
:1051D000903003F44063B3F5006F51D006D8002B34
:1051E00050D0B3F5806F4FD10423B1E7B3F5406FD2
:1051F0004CD10823ACE73C4BD3F8903003F4405338
:10520000B3F5005F44D006D8002B43D0B3F5805FE0
:1052100042D104239CE7B3F5405F3FD1082397E7D1
:10522000314BD3F8903003F44043B3F5004F37D0FF
:1052300005D8BBB3B3F5804F36D1042388E7B3F567
:10524000404F33D1082383E7022381E702237FE71E
:1052500002237DE700237BE7102379E7102377E71C
:10526000022375E7002373E7102371E710236FE72C
:1052700002236DE700236BE7102369E7102367E73C
:10528000022365E7012363E7102361E710235FE74B
:1052900002235DE700235BE7102359E7102357E75C
:1052A000022355E7002353E7102351E710234FE76C
:1052B000082B5BD8DFE803F01A343A5A375A5A5AA7
:1052C0001E0000BFF369FFEF0010014000440040E2
:1052D00000480040004C00400050004000140140D5
:1052E00000780040007C004000380240FDF73CFCA4
:1052F00000283DD06268530803EB4000B0FBF2F099
:1053000080B2A0F110024FF6EF739A4232D820F02B
:105310000F03C0F3420018432368D860002030E038
:10532000FDF732FCE4E7FDF711FBE1E71748E1E7A1
:10533000164802E0FDF718FC00B3636800EB530069
:10534000B0FBF3F080B2A0F110024FF6EF739A4277
:1053500016D82368D860002013E0FDF715FCEBE7B2
:10536000FDF7F4FAE8E74FF40040E6E7012008E033
:10537000002006E0012004E0012002E0002000E01F
:10538000012000236366A36610BD00BF0024F40063
:10539000436A13F0010F06D00268536823F4003308
:1053A000816A0B435360436A13F0020F06D0026810
:1053B000536823F48033C16A0B435360436A13F08C
:1053C000040F06D00268536823F48023016B0B435B
:1053D0005360436A13F0080F06D00268536823F441
:1053E0000043416B0B435360436A13F0100F06D028
:1053F0000268936823F48053816B0B439360436A84
:1054000013F0200F06D00268936823F40053C16B99
:105410000B439360436A13F0400F0AD0026853684D
:1054200023F48013016C0B435360036CB3F5801FAE
:105430000BD0436A13F0800F06D00268536823F440
:105440000023816C0B43536070470268536823F458
:10545000C003416C0B435360EBE72DE9F84305466D
:105460000F4616469946DDF820802C68E46937EA35
:1054700004030CBF4FF0010C4FF0000CB4453DD1BC
:10548000B8F1FF3FF1D0FBF75DF8A0EB0900404514
:1054900022D8B8F1000F1FD02B681A6812F0040F41
:1054A000E3D0DA6912F4006FDFD04FF400621A62C1
:1054B0002A68136823F4D07313602A68936823F072
:1054C000010393602023AB67EB67C5F880300023AE
:1054D00085F87430032012E02A68136823F4D0732F
:1054E00013602A68936823F0010393602023AB675D
:1054F000EB67002385F87430032000E00020BDE84E
:10550000F8832DE9F04182B01E46836F202B56D1DF
:1055100004460D469046002A18BF002953D090F843
:105520007430012B51D0012380F874300023C0F86F
:10553000803021238367FBF705F80746A4F85080E5
:10554000A4F85280A368B3F5805F05D04FF000083F
:10555000002384F8743012E0236913B14FF000087F
:10556000F6E7A8460025F3E715F8012B23689A62B1
:10557000B4F8522092B2013A92B2A4F85220B4F890
:1055800052309BB283B100963B46002280212046D8
:10559000FFF763FFD8B9002DE6D138F8023B226847
:1055A000C3F308039362E3E700963B4600224021E1
:1055B0002046FFF752FF60B92023A36700E00220D6
:1055C00002B0BDE8F0810120FAE70220F8E70320ED
:1055D000F6E70320F4E710B582B004460023C0F8D4
:1055E0008030FAF7AFFF23681B6813F0080F08D16B
:1055F0002023A367E3670020206684F8740002B0CC
:1056000010BD6FF07E430093034600224FF400115B
:105610002046FFF722FF0028EAD00320EFE768B317
:1056200010B50446836F03B32423A367226813686D
:1056300023F0010313602046FFF712FD012813D069
:10564000636ABBB92268536823F4904353602268AD
:10565000936823F02A0393602268136843F00103E0
:1056600013602046FFF7B7FF10BD80F8743004F0D8
:1056700009F8D9E72046FFF78BFEE3E701207047E2
:1056800030B40B68012B18D00368194A1A404B68D4
:105690008C682343CC6823430C6923434C69234320
:1056A0008C692343CC6923430C6A2343496A0B4327
:1056B00013430360002030BC7047046824F4F844AE
:1056C000CB690A6A1A434B6A1A4322434368084C5F
:1056D0001C404B688D682B43CD682B430D692B43D1
:1056E0004D692B4389690B43234302604360E1E723
:1056F0000080FFFF10B5012A25D0826802F07042B9
:105700000B68013B4C6804F1FF3C43EA0C138C68C6
:1057100004F1FF3C43EA0C23CC6804F1FF3C43EA6C
:105720000C330C6904F1FF3C43EA0C434C6904F16F
:10573000FF3C43EA0C538969013943EA016313438F
:105740008360002010BD8368134C1C40CA6802F1BE
:10575000FF3C4B695A1E120542EA0C322243C368D1
:1057600003F0704C0B68013B4C6804F1FF3E43EAC8
:105770000E138C6804F1FF3E43EA0E230C6904F11A
:10578000FF3E43EA0E438969013943EA016343EA74
:105790000C038260C360D4E7FF0F0FFF0B4B1B6845
:1057A0000B4AA2FB03235B0A41F2883202FB03F39C
:1057B0001A46013B3AB1426B12F0800FF8D0C52374
:1057C0008363002070474FF00040704710000020B6
:1057D000D34D62100146144B1B68144AA2FB0323ED
:1057E0005B0A41F2883202FB03F31A46013BBAB16D
:1057F0004A6B12F0450FF8D012F4006FF5D14B6BE5
:1058000013F0040F06D1486B10F0010005D1C52339
:105810008B6370470420886370470120886370475A
:105820004FF00040704700BF10000020D34D6210C1
:105830000146104B1B68104AA2FB03235B0A41F28E
:10584000883202FB03F31A46013B82B14A6B12F025
:10585000450FF8D012F4006FF5D1486B10F004003A
:1058600002D1C5238B6370470420886370474FF0D3
:105870000040704710000020D34D62100146164BC7
:105880001B68164AA2FB03235B0A41F2883202FB23
:1058900003F31A46013BE2B14A6B12F0450FF8D010
:1058A00012F4006FF5D14B6B13F0040F0BD14B6B5F
:1058B00013F001030AD1486B10F040000BD04022D6
:1058C0008A63184670470420886370470120886304
:1058D00070474FF00040704710000020D34D621019
:1058E00084B00DF1040C8CE80E000B461343039AB0
:1058F0001343049A1343059A1343069A13434168CA
:10590000034A0A4013434360002004B0704700BFBD
:105910000081FFFFD0F88000704708B503230360C3
:105920000220FAF715FE002008BD006800F0030011
:10593000704700000B6883604B688A681343CA682D
:1059400013430A691343C168024A0A401343C36000
:105950000020704700F0FFFF0069C0B270471430AC
:105960004058704738B504460D46504B1B685049A7
:10597000A1FB03135B0A03FB02F21346013A002B5F
:105980005DD0636B13F0450FF7D013F4006FF4D1C3
:10599000636B13F0040F06D1636B13F0010F05D096
:1059A0000120A0634DE00420A0634AE0C523A36367
:1059B0002046FFF7D1FFA84201D0012041E000219D
:1059C0002046FFF7CCFF03463A481840C8B3002BE7
:1059D00038DB13F0804F38D113F0005F37D113F06C
:1059E000805F36D113F0006F36D113F0806F36D15F
:1059F00013F0807F36D113F4000F36D113F4800FEB
:105A000036D113F4001F36D113F4801F36D113F4AE
:105A1000802F36D113F4003F36D113F4803F36D1B6
:105A200013F4004F36D113F4804F36D113F4005FD6
:105A300036D113F0080F36D04FF4000001E04FF0DC
:105A4000004038BD4FF00070FBE74020F9E78020B0
:105A5000F7E74FF48070F4E74FF40070F1E74FF48C
:105A60008060EEE74FF40060EBE74FF48050E8E72A
:105A70004FF40050E5E74FF48040E2E74FF4004078
:105A8000DFE74FF40030DCE74FF48020D9E74FF434
:105A90000020D6E74FF48010D3E74FF40010D0E792
:105AA0004FF48000CDE74FF48030CAE710000020AB
:105AB000D34D621008E0FFFDF8B505460E461746C7
:105AC000234B1B68234AA2FB03235B0A41F2883263
:105AD00002FB03F31A46013B8AB36C6B14F0450FCB
