:1000000020200020490D0000C50D0000C50D000096
:1000100000000000000000000000000000000000E0
:10002000000000000000000000000000C50D0000FE
:100030000000000000000000C50D0000C50D00001C
:10004000C50D0000C50D0000C50D0000C50D000068
:10005000C50D0000C50D0000C50D0000C50D000058
:10006000C50D0000C50D0000C50D0000C50D000048
:10007000C50D0000C50D0000C50D0000C50D000038
:10008000C50D0000C50D0000C50D0000C50D000028
:10009000C50D0000C50D0000C50D0000C50D000018
:1000A000C50D0000C50D0000C50D0000C50D000008
:1000B000C50D0000C50D0000C50D000010B5064CB3
:1000C0002378002B07D1054B002B02D0044800E019
:1000D00000BF0123237010BD0000002000000000BD
:1000E000980E0000044B10B5002B03D003490448C0
:1000F00000E000BF10BDC04600000000040000206A
:10010000980E000090B583B000AF39601100BB1DA0
:10011000021C1A807B1D0A1C1A707B1D1B78043B75
:10012000042B4CD89A002E4BD3181B689F46BB1D3E
:100130001C883B682B49180000F0CBF80300634390
:100140006422534347E0BB1D1C883B6826491800C6
:1001500000F0BFF8030063431A0013009B009B18D4
:100160005B0038E0BB1D1C883B68FA229100180038
:1001700000F0AFF8030063432DE0BB1D1C883B6813
:100180006421180000F0A5F803006343013B0A2135
:10019000180000F09EF8030001331CE0BB1D1C8812
:1001A0003B680A21180000F094F803006343013B08
:1001B0006421180000F08DF8030001330BE0BB1D33
:1001C0001B883A685343013BFA229100180000F063
:1001D00080F8030001331800BD4603B090BDC0464F
:1001E000140E0000A08601001027000080B582B028
:1001F00000AF0200BB1D1A800549BB1D1B880722EA
:100200001800FFF77FFF03001800BD4602B080BD55
:1002100000093D0080B584B000AF78600A00FB1C87
:100220001A700F203B187A6812781A703B183A1827
:10023000127802218A431A70FB1C1B785B005AB2A9
:100240003B181B785BB213435AB23B181A707B6899
:100250003A1812781A70C046BD4604B080BD80B509
:1002600084B000AFB9607A600F217B18021C1A704D
:100270009023DA057B181B7801210B40D9B2137843
:100280000120084001218B43191C031C0B431370F0
:100290009023DB05BA689A609023DB057A68DA6000
:1002A000C0469023DB051B79DB07DB0FDBB2002B9D
:1002B000F7D1C046C046BD4604B080BD80B500AF92
:1002C0009023DB0500211800FFF7A4FFC046BD46C0
:1002D00080BD80B586B000AF78603960EFF31083E1
:1002E000FB60FB68BB6072B6C0463A687B68190069
:1002F0000020FFF7B4FF9023DB051B697B61BB681F
:100300003B613B6983F31088C0467B691800BD469A
:1003100006B080BD80B582B000AF78603960C0465D
:100320007B685B683A681340FAD1C046C046BD4658
:1003300002B080BD80B584B000AFF8607A600B2059
:100340003B180A1C1A703B181A78FB680832920096
:100350007968D150044AFB6811001800FFF7DAFFF2
:10036000C046BD4604B080BDFD07000080B582B028
:1003700000AF78607B680122134005D0044A054B2A
:1003800000211800FFF7D6FFC046BD4602B080BD71
:1003900006010100001C004080B582B000AF78600B
:1003A00039607B685A683B685B001E210B401A432A
:1003B0007B685A60C046BD4602B080BD80B500AFC4
:1003C0000A4B00211800FFF7E7FF00F05BF800F090
:1003D000F3F800F01DF800F021F9FF20FFF7C6FF49
:1003E000FFF76CFFC046BD4680BDC04600400041DF
:1003F00080B582B000AF78600A00FB1C1A707B6881
:10040000FA1C12781A71C046BD4602B080BD0000C9
:1004100080B582B000AF054B7B607B68012118007E
:10042000FFF7E6FFC046BD4602B080BD00080040B1
:1004300080B582B000AF786039607B683A681A6135
:10044000C046BD4602B080BD80B584B000AF7860C4
:100450007B68DB69FB60FB681B0A1F221340FB60A3
:10046000FB681800BD4604B080BD80B582B000AF07
:10047000786039607B683A68DA61C046BD4602B090
:1004800080BD000080B582B000AF104B7B60BB1C0C
:1004900000221A807B681800FFF7D6FF0200BB1C01
:1004A0001A80BB1C1B881B021A00F8235B011A4030
:1004B0007B6811001800FFF7D8FF7B680121180046
:1004C000FFF7B6FFC046BD4602B080BD0014004035
:1004D00080B582B000AF78603960C0467B689B69A8
:1004E0003A681340FAD1C046C046BD4602B080BD4E
:1004F00080B582B000AF78607B68DB681B090122A1
:1005000013405A1E9341DBB21800BD4602B080BDB5
:1005100080B582B000AF78607B689B699B08012240
:1005200013405A1E9341DBB21800BD4602B080BD95
:1005300080B582B000AF78607B681B7DDBB2802223
:1005400052421343DAB27B681A75C046BD4602B008
:1005500080BD80B582B000AF78600A00FB1C1A70C5
:100560007B68FA1C12781A75C046BD4602B080BD81
:1005700080B582B000AF78600A00FB1C1A707B68FF
:10058000FA1C12785A757B6804211800FFF7A0FF47
:10059000C046BD4602B080BD80B582B000AF786075
:1005A0000A00FB1C1A707B68FA1C12789A75C04608
:1005B000BD4602B080BD000080B582B000AF164BD2
:1005C0007B607B6802211800FFF7C3FF7B680B216B
:1005D0001800FFF7CDFFC0467B681800FFF798FFB3
:1005E000031EF9D17B6807211800FFF7D5FFC0462D
:1005F0007B681800FFF77CFF03001A0001235340BB
:10060000DBB2002BF4D17B681800FFF791FFC046E6
:10061000BD4602B080BDC0460010004080B582B02B
:1006200000AF034B7B60C046BD4602B080BDC046F4
:100630000010004080B582B000AF7860044B054ADE
:100640005A60034B05221A60C046BD4602B080BD09
:1006500010E000E0FFFFFF0080B582B000AF7860DF
:100660007B681800FFF7E6FFC046BD4602B080BDBC
:1006700080B584B000AF786039603B681A0E0F23F4
:10068000FB181A703B68BB6011E0164B164A5A60A3
:10069000144B154A9A60C046124B1A6880235B02BD
:1006A0001340F9D0BB68114A94466344BB600F22E3
:1006B000BB181B78BA18591E1170002BE5D1094BD5
:1006C000BA685A60074BBA689A60C046054B1A6808
:1006D00080235B021340F9D0C046C046BD4604B03B
:1006E00080BDC04610E000E0FFFFFF00010000FFFA
:1006F00080B582B000AF7860054B7A681A60044B11
:100700001B681800FFF7A8FFC046BD4602B080BDB9
:100710001C00002090B583B000AF0200BB1D1A8002
:10072000074B1C68BB1D1B881800FFF75FFD03000B
:1007300019002000FFF79CFFC046BD4603B090BDE6
:100740001C00002080B584B000AFB9607A600F2132
:100750007B18021C1A707B181B7801225340DBB2F5
:10076000002B00D000BEC046BD4604B080BD80B5A1
:1007700000AF00F083FAC046BD4680BD80B584B0AE
:1007800000AFF8607A600B203B180A1C1A703B1807
:100790001B78FA68DB01D31808337A681A60C04600
:1007A000BD4604B080BD80B584B000AFF8607A600B
:1007B0000B203B180A1C1A703B181B78FA68DB01E7
:1007C000D31804337A681A60C046BD4604B080BDB1
:1007D00080B584B000AFF8607A600B203B180A1C2B
:1007E0001A703B181B78FA68DB01D31818337A6843
:1007F0001A60C046BD4604B080BD80B584B000AF6D
:10080000F8607A600B203B180A1C1A703B181B78A2
:10081000FA68DB01D31814337A681A60C046BD4603
:1008200004B080BDB0B584B000AF78600C0010009B
:100830001900FB1C221C1A70BB1C021C1A707B1CAA
:100840000A1C1A70FB1C1978BB1C1A780F257B191F
:1008500078683024C90141188A18121912781A7060
:100860002C003B193A1912780F218A431A707B1C0D
:100870001B780F221340D9B23B193A1912780A4358
:100880001A70FB1C1A78BB1C1B7879683020D201C7
:100890008A18D3181B183A1912781A70C046BD4628
:1008A00004B0B0BDB0B584B000AF78600C001000EB
:1008B0001900FB1C221C1A70BB1C021C1A707B1C2A
:1008C0000A1C1A70FB1C1978BB1C1A780F257B199F
:1008D00078683024C90141188A18121912781A70E0
:1008E0002C003B193A1912780F210A401A707B1C10
:1008F0001B781B01D9B23B193A1912780A431A70B6
:10090000FB1C1A78BB1C1B7879683020D2018A182E
:10091000D3181B183A1912781A70C046BD4604B095
:10092000B0BDB0B584B000AF78600C001000190005
:10093000FB1C221C1A70BB1C021C1A707B1C0A1C9C
:100940001A70FB1C1978BB1C1A780F257B19786864
:100950004024C90141188A18121912781A702C0003
:100960003B193A19127801218A431A707B1C1978B5
:100970003B193A1912780A431A70FB1C1A78BB1CEF
:100980001B7879684020D2018A18D3181B183A19AD
:1009900012781A70C046BD4604B0B0BD80B584B0B0
:1009A00000AFF8607A600B203B180A1C1A703B18E5
:1009B0001B78FA68DB01D31828337A681A60C046BE
:1009C000BD4604B080BD000080B582B000AF396084
:1009D0001100FB1D021C1A70BB1D0A1C1A70BB1DE6
:1009E0001B78022B47D068DC002B02D0012B22D0D1
:1009F00063E03A68FB1D1978C023DB051800FFF798
:100A0000D2FE3B681B041B0C8022D2051A43FB1D3F
:100A100019788223DB051800FFF7C0FF3B681B0C29
:100A2000C02212061A43FB1D19788223DB05180029
:100A3000FFF7B4FF48E03A68FB1D1978C023DB05D7
:100A40001800FFF7B0FE3B681B041B0C204A1A433A
:100A5000FB1D19788223DB051800FFF79FFF3B6819
:100A60001B0C1C4A1A43FB1D19788223DB05180056
:100A7000FFF794FF28E03A68FB1D1978C023DB05D7
:100A80001800FFF77BFE3B681B041B0C8022D2057D
:100A90001A43FB1D19788223DB051800FFF77EFF40
:100AA0003B681B0CC02212061A43FB1D19788223D7
:100AB000DB051800FFF772FF06E0074B462219001E
:100AC0000020FFF73FFEC046C046BD4602B080BDD5
:100AD00000000240000002C0280E000080B582B075
:100AE00000AF39601100FB1D021C1A70BB1D0A1CEF
:100AF0001A70BB1D1B78002B08D03A68FB1D1978B3
:100B0000C023DB051800FFF763FE07E03A68FB1D12
:100B10001978C023DB051800FFF76FFEC046BD46FD
:100B200002B080BDB0B584B000AF786039607B683A
:100B30005A090F203B181A707B68DAB20E243B1951
:100B40001F210A401A703B68013309D13B191A78FA
:100B50003B1819788223D8050023FFF7E2FE2CE02A
:100B60000E243B191A780F257B1919788223D80592
:100B70000123FFF7D6FE3B191B78012213400DD04D
:100B80003B191B785B08DAB23B68DCB27B19197839
:100B90008223D8052300FFF785FE0EE00E23FB1805
:100BA0001B785B08DAB23B68DCB20F23FB181978BC
:100BB0008223D8052300FFF735FEC046BD4604B0AA
:100BC000B0BD80B582B000AF786039603A687B68AC
:100BD00011001800FFF7A6FFC046BD4602B080BD59
:100BE00080B582B000AF0200FB1D1A70BB1D0A1C4D
:100BF0001A70FB1D1B785B09D8B2FB1D1B781F22E6
:100C0000134001229A401100BB1D1B781A00FFF708
:100C1000DBFEC046BD4602B080BD80B582B000AFED
:100C20000200FB1D1A70BB1D0A1C1A70FB1D1B78ED
:100C30005B09D8B2FB1D1B781F22134001229A408A
:100C40001100BB1D1B781A00FFF748FFC046BD46C8
:100C500002B080BD80B500AFFFF7B0FBC046BD4617
:100C600080BD000080B500AF034B1800FFF740FDCA
:100C7000C046BD4680BDC04610E000E080B500AF74
:100C8000FFF7E8FF00210F20FFF7C7FF02210F2029
:100C9000FFF7A6FF01235B4219000F20FFF791FF2A
:100CA000FFF7E0FFC046BD4680BD80B584B000AF11
:100CB000F8607A600B203B180A1C1A703B181B78EE
:100CC000FA68DB01D3181C337A681A60C046BD4647
:100CD00004B080BD80B582B000AF02003960FB1D5A
:100CE0001A703A68FB1D1978C023DB051800FFF75E
:100CF000DCFFC046BD4602B080BD80B582B000AF0B
:100D00000200FB1D1A70FB1D1B785B09DAB2FB1D8C
:100D10001B781F210B40012199400B001900100086
:100D2000FFF7D8FFC046BD4602B080BD80B500AF1A
:100D3000FFF71DFDFA235B001800FFF7EBFC0F2007
:100D4000FFF7DBFFF6E7000080B582B000AF164B7F
:100D50007B60164B3B607A683B689A420CD007E098
:100D60007A68131D7B603B68191D396012681A6030
:100D70003A680F4B9A42F3D30E4B3B6004E03B685A
:100D80001A1D3A6000221A603A680B4B9A42F6D359
:100D90000A4B7B607A680A4BFF218A439A6000F015
:100DA00015F8FFF7C3FFFEE7980E000000000020D3
:100DB00000000020000000202000002000000000B3
:100DC00000ED00E080B500AFFEE7000070B5002642
:100DD0000C4D0D4C641BA410A64209D1002600F056
:100DE0004BF80A4D0A4C641BA410A64205D170BDF5
:100DF000B300EB5898470136EEE7B300EB5898473D
:100E00000136F2E7840E0000840E0000840E00001C
:100E1000880E00009C0100007A01000064010000BF
:100E2000460100002E010000433A5C557365727361
:100E30005C45645C4465736B746F705C61726D2DAE
:100E4000636F727465786D2D636D616B652D74656C
:100E50006D706C6174655C41542D53414D43327823
:100E60005C68706C2F68706C5F6770696F5F62613F
:100E700073652E6800000000F8B5C046F8BC08BCD9
:100E80009E467047E5000000F8B5C046F8BC08BCB7
:080E90009E467047BD00000002
:00000001FF
